:020000040800F2
:10000000900700206D020008A12800089928000828
:100010009D280008310D0008C52A000800000000D6
:10002000000000000000000000000000A9280008F7
:10003000410D000800000000A5280008AD280008B8
:10004000870200088702000887020008870200086C
:10005000870200088702000887020008870200085C
:10006000870200088702000887020008870200084C
:10007000870200088702000887020008870200083C
:10008000870200088702000887020008870200082C
:10009000870200088702000887020008870200081C
:1000A000870200088702000887020008870200080C
:1000B00087020008870200088702000887020008FC
:1000C00087020008870200088702000887020008EC
:1000D00087020008B92A0008870200088702000882
:1000E00087020008870200088702000887020008CC
:1000F00087020008870200088702000887020008BC
:1001000087020008870200088702000887020008AB
:10011000870200088702000887020008870200089B
:10012000350D0008870200088702000887020008D2
:10013000870200088702000887020008870200087B
:10014000870200088702000887020008870200086B
:10015000870200088702000887020008870200085B
:10016000870200088702000887020008870200084B
:1001700087020008870200088702000800000000CC
:10018000870200088702000800F002F800F05FF81C
:1001900014A696E8000CB244B344DA4501D100F04D
:1001A00056F8BAE80F000FA696E83000A5EB040554
:1001B00004EB0607AAEB0704A7F101074FEA1515A0
:1001C0004FEA3414A4F10104AC4201D300F03FF82B
:1001D00013F0010F18BFFB1A43F0010300F001F800
:1001E000DBE718471834000038340000103A24BF09
:1001F00078C878C1FAD8520724BF30C830C144BF8C
:1002000004680C6070470000704700000023002461
:1002100000250026103A28BF78C1FBD8520728BF16
:1002200030C148BF0B607047662903F08B81002006
:1002300070471FB503F079F900F0C0FB04000020FF
:10024000002103F0E5F8E0601FBD10B510BD00F01F
:10025000B5FC1146FFF7EDFF02F036FC00F0D3FCD1
:1002600003B4FFF7F2FF03BC00F014FD0948804718
:1002700009480047FEE7FEE7FEE7FEE7FEE7FEE788
:10028000FEE7FEE7FEE7FEE704480549054A064BA0
:1002900070470000B1280008890100089001002083
:1002A00090070020900300209003002053EA020CE6
:1002B00000F069802DE9F04B4FF00006002B1FBFC6
:1002C000B3FA83F503FA05F424FA05F65E4012BF8B
:1002D0001643B2FA82F502FA05F4C5F120051EBFF5
:1002E00022FA05FC44EA0C04203556EA044C4FEA95
:1002F000144418BF641C4FF000084FF000099042EE
:1003000071EB030C39D3002919BFB1FA81F701FA57
:1003100007F6B0FA80F700FA07F6C7F120071EBF0C
:1003200020FA07FC46EA0C062037B6FBF4FCA7EBE4
:100330000507103F07F01F0BCBF120062CFA06F63D
:100340000CFA0BFB44BFB3460026202FA4BF5E4629
:100350004FF0000B5BEA060C08BF4FF0010B19EBE6
:100360000B0948EB0608ABFB027C06FB02CC0BFB3F
:1003700003CCC01B71EB0C01C1E70B4602464146A2
:100380004846BDE8F08B13B5084318BF4FF0FF3067
:100390000146AFF30080BDE81C4070470FB41CB5A8
:1003A000074B06AA7B4469460090059800F0EDFAD9
:1003B0000020694600F0FCFA1CBC5DF814FB00004C
:1003C000090600002DE9F0474FF0000A894604466F
:1003D000C0F820A02046E1688847002876D025286C
:1003E00006D0D4E901219047206A401C2062F1E741
:1003F000E168204600258847C4F81CA0064600276F
:10040000C4F818A02A2E09D0304602F0F9FF38B3FC
:1004100004EB8708303EC8F8186019E059F8041B4F
:10042000204604EB87029161E1688847012F064668
:1004300018D1E069002820DA25F020051DE0D8F861
:10044000180000EB800006EB40003038C8F81800B8
:100450002046E1688847064602F0D2FF0028EED128
:10046000012F0AD02E2E08D12046E16888477F1C34
:100470000646022F45F02005C4DBA069002803DAF8
:10048000404245F00105A061E80701D025F01005C4
:10049000B6B1A6F14100192802D8203645F400650E
:1004A0004A463146204625604D46FFF7BDFE58B10D
:1004B000012806D0ED1D25F0070000F1080989E7A5
:1004C00004E005F1040985E730468AE7206ABDE8C3
:1004D000F08710B5431C02E010F8011B71B18107D1
:1004E000FAD14FF0013202C88C1A8C4314EAC211BF
:1004F000F9D0C01A0A0603D0C01E10BDC01A10BD24
:100500000A0401D0801E10BD0902FCD0401E10BD9F
:100510004FF0000200B5134694469646203922BF9C
:10052000A0E80C50A0E80C50B1F12001BFF4F7AFE7
:10053000090728BFA0E80C5048BF0CC05DF804EBC9
:10054000890028BF40F8042B08BF704748BF20F837
:10055000022B11F0804F18BF00F8012B7047704735
:10056000704770472DE9FF4F0C461E464FF0FF378E
:100570008BB0D2E90001DDF860800A908A46C1F3B1
:100580000A5505B93D46002108464FF00000BAF172
:10059000000F00F4400005DA00EB80004FF440014A
:1005A00001EA50004FEA9059B9F1010F00DDB94658
:1005B0000A9850EA4A000ED044F61050A5F2FF35D2
:1005C00045432F14B8F1000F1ED07542291E1EDDC1
:1005D000C9F100021CE0B8F1010F4FF0000001D09A
:1005E000302103E0F24305E02154401CB042FBDB24
:1005F00030460022002121540B99C1F80880C1E93E
:1006000000200FB0BDE8F08FBD1B6D1CDEE74A4631
:1006100000DA694206A800F05BFA06AB93E807002F
:1006200003AB83E8070050460A9902F008FB8DE807
:100630000700A0F500501F3800900398002D0ADD38
:1006400042F21F014A460844002303A9039068466A
:1006500002F072FD09E0A0F500504A461F38002361
:1006600003A90390684602F07CFD8DE807000004B2
:10067000000C03D04FF0FF30410800E01046B8F105
:10068000000F03D00022009215461EE0751E05D40F
:1006900000F098F9303262556D1EF9D5B34601224B
:1006A000084302D000227F1C04E02078302801D1CA
:1006B00000227F1E002A099784D01DE0112D07DA41
:1006C00000F080F9303262556D1C50EA0102F5D11C
:1006D000084302D00098C8B10EE00021681E05E072
:1006E000235C625C63542254401E491C8142F7DB48
:1006F000AB46A81B401E0990002004F80B000B9885
:10070000099AC0F80880C0E9002B7AE711264FF05B
:10071000000857E72DE9F04F88460446D21D22F025
:10072000070191B0D1E90001CDE90A0102F050FEC4
:1007300002460B98C00F01D02D2007E020688107EA
:1007400001D52B2002E0202101EAC000032A0990F4
:1007500001D0072A05DB03464146204600F078F920
:100760000BE12078800601D5E06900E00620B8F1B1
:10077000650F814606D0B8F1660F18D0B8F1670F43
:1007800070D131E00020B9F1110F009001DB11238D
:1007900001E009F101030AAA01A90CA8FFF7E2FE92
:1007A000DDE90C70002609F10105834647E00120D0
:1007B0004B4600904FF000470AAA01A90CA8FFF78A
:1007C000D1FEDDE90DB00C995D46002610B909F1A6
:1007D00001000D18B9EB050003D4C0F1FF3609F193
:1007E0000105A5EB09002BE0B9F1010F01DA4FF08B
:1007F00001090020B9F1110F0090484601DD1123D5
:1008000000E003460AAA01A90CA8FFF7ABFEDDE948
:100810000C704D4600268346207800070AD4AB456D
:1008200000DA5D4601A8012D04DD411911F8011C13
:10083000302907D04F4502DA17F1040F04DA0120FE
:1008400082460FE06D1EEEE7002F02DCED1B3E44FA
:1008500003E0781CA84200DD7D1CB81B00F1010AF2
:100860004FF000472078000703D4AA4501DB4FF082
:10087000FF3A0021B7F1004F0DF143088DF8431006
:1008800024D002202B23002F01DA7F422D230A21BE
:10089000021EA0F1010000DC5FB197FBF1FC97FBA9
:1008A000F1F201FB1C7C17460CF1300C08F801CD6D
:1008B000EEE7A8F1010003702188090501D5452163
:1008C00000E06521A0F1010800F8011C09980FA9BA
:1008D000A1EB0807FF1D00B10120411901EBEA70EF
:1008E000A1693844081A401EA0612078C00602D4CD
:1008F0002046AFF30080099828B1D4E90121904740
:10090000206A401C20622078C00622D52046AFF322
:1009100000801EE0002E04DBB34502DD01A8805DEF
:1009200000E03020D4E901219047206A401C206279
:10093000761CAAF101005FEA000A0AD100F03EF835
:10094000C0680168405CD4E901219047206A401CDE
:100950002062281EA5F10105DCDC07E0D4E90121B5
:1009600018F8010B9047206A401C2062381EA7F13E
:100970000107F3DC2046AFF30080032011B041E60D
:1009800001694A1C02610878704700B58FB0CDE953
:1009900001310021059105497944CDE90310114643
:1009A0006846FFF70FFD0FB000BD0000E5FFFFFF39
:1009B0000A6802F8010B0A6070470000004870479F
:1009C0003000002030B5B0F10A0271F100034FEAA7
:1009D000900E4EEA817EB0EB0E0061EB91014FEA82
:1009E000101E4EEA017E10EB0E0041EB11114FEA92
:1009F000102E4EEA016E10EB0E0041EB11214FEA72
:100A0000104E4EEA014E10EB0E0041EB1141401822
:100A100041F100014FEAD00040EA41704FEAD101B4
:100A20004FEA810444EA907410EB800544EB010422
:100A30006D1944EB0404521BA3414FF0000348BF5F
:100A40000A3200D530BD401C41F1000130BD00002C
:100A50002DE9F0411F46044603260168072A01F4E8
:100A6000006004DB08B116A505E016A503E008B197
:100A700015A500E015A521F010002060A069C01E9A
:100A8000A0610FB1401EA0612046AFF300804FB1BE
:100A9000D4E9012138469047206A401C2062C01CDE
:100AA000206206E0206AFAE7D4E9012115F8010B7B
:100AB0009047761EF8D22046AFF30080BDE8F08163
:100AC0004E414E006E616E00494E4600696E6600F2
:100AD0002DE9F047814616468AB0354878440DC85E
:100AE0008DE80D0032487844801C03AC0DC884E8C2
:100AF0000D0041F69B300844372190FBF1F290FB4A
:100B0000F1F5A5F1800501FB12041B3C02D56442FE
:100B1000012000E00020DFF898A080460027FA447A
:100B2000AAF1BE0A0EE0E0070AD03246684607EB9B
:100B3000470101230AEB810102F013FB8DE8070056
:100B400064107F1C002CEED1194F7F44AE3F19E09A
:100B5000E80715D007EB04100DF1180A90E80E0015
:100B60008AE80E00C068F04201D198190890324618
:100B7000012306A903A802F0F4FA03AB83E80700F7
:100B80006D10641C002DE3D14FF00103324669461D
:100B9000B8F1000F03A802D002F0CEFA01E002F093
:100BA000E0FAC9E90001C9F808200AB0BDE8F087F9
:100BB000E42A000000487047100000207546FFF747
:100BC000F9FFAE4605006946534620F0070085460A
:100BD00018B020B5FFF758FBBDE820404FF00006E5
:100BE0004FF000074FF000084FF0000BAC46ACE8A8
:100BF000C009ACE8C009ACE8C009ACE8C00921F004
:100C000007018D46704710B50446AFF300802046BB
:100C1000BDE81040FFF724BB30B44FF0013C50F862
:100C2000042B51F8043BCCFA52F4D51A20D1FCB96C
:100C300050F8042B51F8043BCCFA52F4D51A17D1D2
:100C4000B4B950F8042B51F8043BCCFA52F4D51A3D
:100C50000ED16CB950F8042B51F8043BCCFA52F485
:100C6000D51A05D1002CDAD030BC4FF00000704707
:100C700029BAB1FA81F111F01801D1F120008440B4
:100C8000F2D1CA40CB4012F0FF0213F0FF0330BC98
:100C9000D01A704701491820ABBEFEE726000200BB
:100CA000704700000146806B036C026C13F0500F1C
:100CB00008D0D20648BF00F0E7B8806BC26C084687
:100CC000104700BF42F40071016401688A6812F0A5
:100CD000405F01D000F0D4B8027E002AFAD1CA6A7F
:100CE00012F4700F02D08A685205F3D44A6822F0D9
:100CF00020024A60016C21F480710164016CC90416
:100D000048BF00F0BDB8016C41F00101016400F082
:100D1000B7B80000806B40210164416C41F00401D0
:100D2000416400F0B1B80000806B00F0ABB8000087
:100D3000FEE7000040F2E000C2F2000000F0B4BAAA
:100D40007047000070B581B00022009290F83C20FE
:100D5000012A03D1022001B070BD00BFD1F800E02C
:100D600001221FFA8EFC4FEA4C0380F83C200EEB68
:100D70004E0213FA8EF31024BEF1090F88BFA3F1BF
:100D80001E0288BF0C24036807251E59954026EAD9
:100D900005051D518D681E5905FA02F232431A519C
:100DA0004968062906D801EB81014A1F194651F806
:100DB000345F0EE00C2901EB810105D8A1F123027B
:100DC000194651F8305F04E0A1F14102194651F88B
:100DD0002C5F1F24944025EA04040C600CFA02F2F4
:100DE0000C6842F2043CC4F2010C2243ACF541749D
:100DF000A3420A603ED1BEF1120F07D1DCF8001009
:100E000041F48001CCF8001034E000BF2EF0010165
:100E100010292FD1DCF80010BEF1100F41F40001B1
:100E2000CCF8001026D140F20801C2F20001096896
:100E30004DF68362C4F21B32A1FB0212910C01EB4E
:100E40008101490000910099A1B1009901390091F7
:100E5000009979B1009901390091009951B1009937
:100E600001390091009929B1009901390091009947
:100E70000029EAD1002180F83C10002001B070BDAB
:100E8000704700007047000070470000002804BF52
:100E90000120704710B5016C00293DD0016CC906D6
:100EA00045D4016C41F202129143023142F2043204
:100EB0000164C4F20102116821F440311160136829
:100EC00090E812102343D0F810E013604A68012420
:100ED00022F480724A604A68C0F6007442EA0E2228
:100EE0004A604A6822F040724A604A6842EA0C024C
:100EF0004A608A6822F400628A60C2688B681A437A
:100F00008A60826A8B68A24223F070638B608B6870
:100F100010D123F0405216E0044600F065F8204658
:100F20000021616484F83C10016CC906B9D5012127
:100F300053E000BF1A438A608A6822F040528A60F8
:100F4000C26A8B681A438A608A6822F002028A6049
:100F50008A68037E90F8204042EA43028A604A6829
:100F600084B142F400624A604A684EF2000322F4FF
:100F700060424A60426ACFF6FF734C6803EB42322C
:100F8000224301E022F400624A60CA6A40F2000C87
:100F900022F47002CA62C3694269CFF6F07CCC6A5F
:100FA0000CEB03532343CB628B6823F400738B60F9
:100FB00090F830308C6844EA43238B608B6823F4CC
:100FC00080638B608B6843EA82228A6000214164DF
:100FD000026C012363F301020264002280F83C20CA
:100FE000BDE810400846704780B586B042F2000167
:100FF0000068C4F20101002288420592CDE9032273
:101000000292019202D006B080BD00BF43F63000CC
:101010000092C4F20200436943F480734361436960
:1010200003F480730093009B0092036843F0010374
:101030000360006800F00100009000980220019019
:101040000320CDE9020201F5604001A900F012FB86
:1010500006B080BDB0B582B00023019390F83C305B
:10106000012B03D1022002B0B0BD00BF8E46012388
:10107000016880F83C308B689446DB0729D18B6887
:101080004DF6836443F001038B6040F20803C2F223
:1010900000031B68C4F21B34A3FB0434A30C03EB52
:1010A00043030193019BA3B1019B013B0193019B6E
:1010B0007BB1019B013B0193019B53B1019B013B20
:1010C0000193019B2BB1019B013B0193019B002BE1
:1010D000EAD18B68DB0503D58B6823F480738B60C2
:1010E0008C68036CE4070BD143F01001016400F13C
:1010F0004401002001220B681A430A6002B0B0BD0F
:1011000040F20174A34303F5807303644B685B05ED
:1011100004D5036C012464F30D330364046C0023D1
:10112000E4044FF0000444BF446C24F0060444641B
:1011300080F83C30836B40F6A54440F62952C0F657
:101140000004C0F60002C3E90F4240F61552C0F693
:101150000002DA646FF022020A604A6842F2043444
:1011600042F080624A608A68054642F480728A6072
:101170004C31184672466346C4F2010400F028FA66
:1011800022682968D20605D0A4F54172914225D083
:1011900002B0B0BD42F20002C4F20102914215D089
:1011A00042F20022C4F2010291420CD042F200123B
:1011B000C4F201029142EBD12268D20606D0A4F516
:1011C00082729142E4D12268D206E1D451F8082F0C
:1011D00012F0405FDCD14FF080428CE74FF60452B2
:1011E000CFF6FF72A25812F0405FD1D108314FF014
:1011F000804280E770B5866D044600F00BFB94F8E2
:101200003510022928D105462068216C026822F099
:1012100016020260426922F08002426109B9A16CA3
:1012200019B1016821F008010160016821F0010194
:10123000016000BF20680068C00715D000F0EAFA1E
:10124000401B0628F6D320206065032084F8350073
:10125000002184F8341070BD8020606501200021D9
:1012600084F8341070BD00BFE06D3F2101FA00F03A
:10127000B060012084F835000020002184F834108B
:1012800070BD000090F83510022909D1052180F8C1
:1012900035100068016821F00101016000207047ED
:1012A0008021416501207047F0B581B00021009197
:1012B00040F20801C2F200010B68D0E9166148F261
:1012C000B51537680822C1F64E358A403A42A3FB6D
:1012D00005350CD003681C68640708D51C6824F029
:1012E00004041C60B260426D42F0010242650122BA
:1012F0008A403A4208D003685B691B0604D5B26095
:10130000426D42F00202426504228A403A4208D00D
:1013100003681B689B0704D5B260426D42F004026B
:10132000426510228A403A4219D001680B681B07B7
:1013300015D5B2600B680A685B0309D4D20509D4DD
:101340000A6822F008020A60016C29B907E000BFB0
:10135000110341D4016C11B1044688472046C26D87
:10136000202101FA02F33B4243D001680F68FF06D7
:101370003FD5B36090F835700B68052F1CD123F072
:1013800016030B604B6923F080034B61036C0BB9B0
:10139000836C1BB10B6823F008030B603F21914065
:1013A000B160012180F83510016D0022002980F81C
:1013B000342054D158E000BF0A685B0310D4D20532
:1013C00012D40A6822F010020A60012180F8351058
:1013D000002180F8341007E0816C0029BCD1BEE701
:1013E000110301D4416C00E0C16B11B10446884780
:1013F0002046416DC1B3416DC9072ED0052180F84B
:1014000035100168AA0A0B6823F001030B60009BEA
:101410000133934200931AD80B68DB0717D0009B67
:1014200001339342009312D80B68DB070FD0009B67
:101430000133934200930AD80B68DB0707D0009B67
:1014400001339342009302D80B68DB07DFD10121FF
:1014500080F83510002180F83410C16C21B101B042
:10146000BDE8F040084700BF01B0F0BD2DE9F041F4
:10147000044600F0CFF9ECB10546022084F83500AF
:101480000020216884F83400086820F0010008601A
:1014900021680868C00711D000F0BCF9401B05287E
:1014A000F6D9032520230320636584F83550BDE871
:1014B000F08100BF0120BDE8F08100BF086848F25C
:1014C0003F02CFF21002D4E9013500EA020C04F128
:1014D0000C0898E8C10143EA0C032B431843D4E9F4
:1014E000072E304338431043626A40EA0E00042A54
:1014F00040EA08031CD1206BD4E90A2E40EA0E0012
:10150000184308604869BEF1000F20F0030040EA6C
:10151000020040F0040C11D0B8F5005F36D0B8F1ED
:10152000000F45D1022A46D0012A3BD032B942E011
:101530000B60486920F0070040EA020C01F0F80057
:101540004AF6AB221038CAF6AA22A0FB02231A09D7
:1015500043F2F453C1F814C0C0F600039A5C40F2A1
:10156000FF335F284FF03F0021EA030100FA02F049
:1015700088BF0431C4E916128860002301250020C9
:10158000636584F83550BDE8F08100BF032AD5D8E3
:10159000012540230120DFE802F0030E030500BF10
:1015A00082E700BFAEF1C070B0FA80F0400904E0FD
:1015B000032A04D3C2D1CEF300600028BED0012597
:1015C00040230120636584F83550BDE8F0810000B8
:1015D00090F834C0BCF1010F04BF0220704770B511
:1015E0004FF0010C80F834C0D0F858E090F835C0C6
:1015F000BCF1010F38D14FF0020C80F835C04FF02C
:10160000000CC0F854C0D0F800C08468056CC06DF0
:10161000DCF80060402C26F48026CCF80060CCF882
:1016200004300B4604BF13460A463F2101FA00F07E
:10163000CCF80830CCF80C20CEF80800DCF800001C
:1016400040F01600CCF800002DB1DCF8000040F0AE
:101650000800CCF80000DCF8000040F00100CCF8F5
:101660000000002070BD00BF002180F8341002206F
:1016700070BD00002DE9F04F83B000F1200200F1B1
:101680003E4741F60045009207F1FF77C4F202059C
:1016900008224FEAB726A84208BF072200254FF0CC
:1016A00000084FF00009072E38BF4FEAB722019219
:1016B0000AE000BF09F1010908F10208B9F1100FB1
:1016C00005F1040500F0A2800F68012202FA09FE6C
:1016D00017EA0E0AEED0D1F804C003220CF003077B
:1016E0007E1E02FA08F4012E6FEA040B12D88468F9
:1016F000CE6804EA0B0406FA08F6344384604468B2
:1017000024EA0E06CCF3001404FA09F426434660DA
:1017100004E000BF032F01D103271EE0C6688C68D8
:1017200006EA0B0604FA08F42643022FC66014D119
:101730006FF00302009E02EA590756F807C005F051
:101740001C040F220B69A2402CEA0202A3401A4398
:10175000F251D1F804C00CF00307026807FA08F34D
:1017600002EA0B021A431CF4403F0260A2D000229E
:1017700043F644030292C4F202031A6843F600449B
:1017800042F480421A601A68C4F2010402F48042F2
:101790000292029A29F003024FF6084C2244CFF637
:1017A000FF7C52F80C3005F00C070F26BE40B34307
:1017B000019E06FA07F73B4342F80C30A2684B68DB
:1017C00042EA0A0743F60C4CDE0258BF22EA0A0737
:1017D000A760C4F2010CDCF800209E0242EA0A076E
:1017E00058BF22EA0A07CCF8007062689E0342EAFA
:1017F0000A0758BF22EA0A0767602268DB0342EA49
:101800000A0758BF22EA0A07276053E703B0BDE87A
:10181000F08F000040F28810C2F2000000687047AC
:1018200040F2000040F28811C2F20000C2F2000152
:1018300000780A68104408607047000080B543F6DD
:101840000040C4F20200016841F4007101600168C7
:1018500041F480610160016841F4807101600320FE
:1018600000F086F80F2000F005F800F027F80020BF
:1018700080BD000070B540F20006C2F2000640F2E2
:1018800008013278C2F200014FF47A730968B3FBA1
:10189000F2F20446B1FBF2F1084600F061FB0F2CB6
:1018A0004FF0010508D838B94FF0FF30214600222B
:1018B000002500F031F87460284670BD82B0002029
:1018C00043F640010190C4F202014A6842F48042AA
:1018D0004A604A6802F480420192019A00900868C6
:1018E00040F080500860086800F080500090009838
:1018F00002B07047002848BF704700F01F01012266
:1019000002FA01F11C2202EAD0004EF20012CEF2DD
:10191000000281507047000010B54EF60C5CCEF20C
:10192000000CDCF80030C3F3022E8EF00704042C08
:1019300028BF0424BEF103034FF0FF3E0EFA04F467
:1019400038BF0023A14399400EFA03F39A43114391
:1019500000F00F0200F160430901043A03F564430B
:101960006244002848BF02F10C03197010BD00004A
:101970004EF60C51CEF200010A684FF6FF031A40F2
:1019800060F30A2242F0806040F0FD70086070470A
:10199000002804BF012070472DE9F04143F60808F4
:1019A000C4F202080446D8F8F8030D4600F0070018
:1019B000814207D988F8F853D8F8F80300F00700F7
:1019C000A84277D12068810717D5410705D5D8F8F7
:1019D000001041F4E051C8F80010010705D5D8F80F
:1019E000001041F46041C8F80010D8F80010A26857
:1019F00021F0F0011143C8F80010C00740D1D8F819
:101A0000F80300F00700854207D288F8F853D8F8A9
:101A1000F80300F00700A8424CD12068410707D521
:101A2000D8F80010E26821F4E0511143C8F8001022
:101A3000000708D5D8F80000216920F4604040EA8A
:101A4000C100C8F8000000F07DF8D8F8001043F29B
:101A5000DC52C1F30311C0F60002515C40F20802EF
:101A600020FA01F140F20400C2F200000068C2F264
:101A700000021160FFF7FEFE0020BDE8F08100BF0C
:101A80006068811E022907D258F8081C89015CBFD2
:101A90000120BDE8F08111E0012807D158F8081CA9
:101AA00089035CBF0120BDE8F08107E058F8081CFD
:101AB000890703D40120BDE8F08100BFD8F80010E9
:101AC00021F003010843C8F80000FFF7A3FE064613
:101AD00041F28837D8F80000616800F00C00B0EBE4
:101AE000810F8CD0FFF796FE801BB842F2D90320FD
:101AF000BDE8F08140F2080043F60801C2F20000A0
:101B0000C4F202010068096843F2EC52C1F3822179
:101B1000C0F60002515CC8407047000040F2080067
:101B200043F60801C2F20000C4F20201006809682D
:101B300043F2EC52C1F34231C0F60002515CC8409E
:101B40007047000010B543F60404C4F20204616853
:101B5000C1F3810142F20040C0F2F400DFE801F07D
:101B600002040A0210BD00BF47F64000C0F27D101B
:101B700010BD00BF206821682368490247F6400174
:101B8000C0F27D1100F03F02C3F388105CBF42F247
:101B90000041C0F2F401A1FB00010023FEF786FB27
:101BA00021680222C1F3014102EB4101B0FBF1F0D7
:101BB00010BD0000002804BF012070472DE9F0414E
:101BC00082B00446007843F60006C007C4F202065D
:101BD0000CD0B06800F00C00042840F08180306820
:101BE000800303D56068002800F0688120788007B2
:101BF0001BD5B06810F00C0F09D0B06800F00C00D5
:101C0000082840F087807068400200F183803068C7
:101C1000800703D5E068012840F0508130682169D1
:101C200020F0F80040EAC10030602078000713D4AB
:101C3000207840072AD4A569002D00F03A81B068C9
:101C400000F00C00082840F0A580012D40F00E8126
:101C5000012002B0BDE8F0816069002800F08280B8
:101C60000020C4F247200121C0F8801EFFF7D2FDFA
:101C7000054600BF706F8007DAD4FFF7CBFD401B2D
:101C80000228F7D9032002B0BDE8F081306C5FEA8A
:101C9000C0080AD400200190306C40F080503064BD
:101CA000306C00F080500190019847F20007C4F2B8
:101CB00000073868C00547D4386840F48070386041
:101CC000FFF7A8FD054600BF3868C0053CD4FFF704
:101CD000A1FD401B0228F7D9032002B0BDE8F08126
:101CE000B06800F00C00082803D1706840023FF58E
:101CF00076AF61683068B1F5803F07D0B1F5A02FAD
:101D000040F09A8040F480203060306840F48030A9
:101D100030609AE0E068002840F20000C4F24720FA
:101D20005CD001210160FFF775FD05463068800732
:101D30003FF574AFFFF76EFD401B0228F6D9032074
:101D400002B0BDE8F08100BFA168306F012905D065
:101D5000052955D140F004003067306F40F0010094
:101D6000306756E00020C4F247200021C0F8801EF2
:101D7000FFF750FD054600BF706F80077FF558AF35
:101D8000FFF748FD401B0228F6D9032002B0BDE84A
:101D9000F08100BF0027C4F2472700203866FFF714
:101DA00039FD022D05460DD13068800140F18A8051
:101DB000FFF730FD401B02284FF00300F4D902B0BA
:101DC000BDE8F0813068800173D5FFF723FD401B2B
:101DD00002284FF00300F5D9F1E700BF00210160B0
:101DE000FFF718FD054600BF306880077FF51DAF7F
:101DF000FFF710FD401B02284FF00300F4D9DEE787
:101E000020F001003067306F002920F004003067B7
:101E10007AD0FFF7FFFC054641F28837306F800724
:101E200000F18480FFF7F6FC401BB842F6D903208E
:101E300002B0BDE8F08100BF20F48030306030682F
:101E4000002920F4802030607AD0FFF7E3FC0546BB
:101E5000306880033FF5CAAEFFF7DCFC401B642806
:101E6000F6D9032002B0BDE8F08100BF7068E169D7
:101E700000F480028A4221D1216A00F03F028A42A6
:101E80001CD147F6C071626A0140B1EB821F15D1C7
:101E9000A16A4FF6FF73C903994300F44032A1F5DC
:101EA00080318A420AD1E16A00F07060B0EB016FC4
:101EB00004D1002002B0BDE8F08100BF012002B0D3
:101EC000BDE8F08104F11C052FCD084340EA8210E3
:101ED000D9034FF6FF729143A1F5803140EA0560C6
:101EE0000843706001203866FFF794FC044600BF89
:101EF00030688001DDD4FFF78DFC001B02284FF015
:101F00000300F5D95BE700BFFFF784FC054641F20B
:101F1000883700BF306F800708D5FFF77BFC401B78
:101F2000B8424FF00300F5D949E700BFB8F1000F00
:101F30003FF581AE306C20F0805030647BE600BF0E
:101F4000FFF768FC054600BF306880037FF54EAEA2
:101F5000FFF760FC401B64284FF00300F4D92EE724
:101F6000411E0020B0EB116F1CBF012070474EF2E4
:101F70001002CEF2000251604EF62351CEF2000163
:101F8000F0230B70072190601160704770470000CC
:101F900070470000B0B582B001680A68CC684B6930
:101FA00002F02F05202D04F0200505D125B102B047
:101FB000BDE8B04000F08CBC5FEA027C1EBF03F0BD
:101FC000010E04F4907313EB0E0341D1036BD5069D
:101FD00018D5012B16D114F0100313D00022019252
:101FE0000A6801924A680192019A496949064BD4EC
:101FF000818DC28DC38D002B18BF914240F00682A7
:1020000002B0B0BD13062DD514F080032AD090F88D
:102010004120212AF4D18268B2F5805F03D10269A0
:10202000002A00F07982026A531C036212784A6027
:10203000C28C013A1304C284E2D1C86820F0800047
:10204000C860C86840F04000C86002B0B0BD00BFC2
:10205000D30718BF14F4807340F0E280530700F1F7
:10206000E580EAE05206CBD514F04002C8D0CA6839
:1020700022F04002CA60202180F8411002B0BDE881
:10208000B04000F007BC00BFC26B11684B68858D83
:1020900099B2002900F0B480A94280F0B180C385D4
:1020A000D169B1F5807F00F0A080016851E8031F7D
:1020B000026821F4807142E80313DBB1016851E842
:1020C000031F026821F4807142E8031393B1016891
:1020D00051E8031F026821F4807142E803134BB1F9
:1020E000016851E8031F026821F4807142E803137C
:1020F000002BDAD1016851E8051F026821F00101C7
:1021000042E80513BBB3016851E8051F026821F0DE
:10211000010142E8051373B3016851E8051F026825
:1021200021F0010142E805132BB3016851E8051FB6
:10213000026821F0010142E80513002BDAD11AE010
:10214000016851E8051F026821F0400142E80513CB
:10215000DBB1016851E8051F026821F0400142E847
:10216000051393B1016851E8051F026821F0400191
:1021700042E805134BB1016851E8051F026821F0E0
:10218000400142E80513002BDAD1202180F84210EB
:1021900000210163016851E8031F026821F010016A
:1021A00042E80313DBB1016851E8031F026821F024
:1021B000100142E8031393B1016851E8031F02685C
:1021C00021F0100142E803134BB1016851E8031FED
:1021D000026821F0100142E80313002BDAD1C16B31
:1021E00004460846FFF706F8204602214163818D28
:1021F000C28D891A89B202B0BDE8B040FFF7C6BEF1
:102200008D427FF4FDAED269B2F5807F7FF4F8AEE7
:102210000222426302B0BDE8B040FFF7B7BE00BF84
:10222000436C43F001034364530706D5BEF1000F2E
:1022300003D0436C43F002034364930706D5BEF119
:10224000000F03D0436C43F004034364BCF1000F60
:1022500006D55EEA050303D0436C43F008034364EC
:10226000436C002B3FF4CCAE920605D525B1044655
:1022700000F02EFB216820464969426C01F04001C4
:1022800002F00802891800F0B98000BF016851E827
:10229000031F026821F4907142E80313BBB3016885
:1022A00051E8031F026821F4907142E8031373B3ED
:1022B000016851E8031F026821F4907142E803139A
:1022C0002BB3016851E8031F026821F4907142E8C2
:1022D0000313002BDAD11AE0016851E8051F0268E8
:1022E00021F0010142E80513DBB1016851E8051F47
:1022F000026821F0010142E8051393B1016851E839
:10230000051F026821F0010142E805134BB1016885
:1023100051E8051F026821F0010142E80513002B76
:10232000DAD1016B012924D1016851E8031F026849
:1023300021F0100142E80313DBB1016851E8031FEB
:10234000026821F0100142E8031393B1016851E8DB
:10235000031F026821F0100142E803134BB101682A
:1023600051E8031F026821F0100142E80313002B1B
:10237000DAD1202180F84210002101630168496907
:10238000490640F1C380016851E8051F026821F049
:10239000400142E80513DBB1016851E8051F0268FE
:1023A00021F0400142E8051393B1016851E8051F8F
:1023B000026821F0400142E805134BB1016851E881
:1023C000051F026821F0400142E80513002BDAD115
:1023D000C16B002900F09A8042F6C502C0F60002E7
:1023E000044608460A65FEF74DFF00283FF408AE94
:1023F000E06B016D02B0BDE8B04008470446FFF74E
:10240000C7FD0020606402B0B0BD00BF891A00BFE4
:10241000026852E8032F036822F4907243E8032510
:10242000BDB3026852E8032F036822F4907243E8B8
:10243000032575B3026852E8032F036822F49072F3
:1024400043E803252DB3026852E8032F036822F402
:10245000907243E80325002DDAD11AE0026852E8B1
:10246000052F036822F0010243E80525DDB102686B
:1024700052E8052F036822F0010243E8052595B1D3
:10248000026852E8052F036822F0010243E805259F
:102490004DB1026852E8052F036822F0010243E8BB
:1024A0000525002DDAD1202280F842200022026387
:1024B000026852E8032F036822F0100243E8032564
:1024C000DDB1026852E8032F036822F0100243E8EE
:1024D000032595B1026852E8032F036822F0100229
:1024E00043E803254DB1026852E8032F036822F048
:1024F000100243E80325002DDAD1022289B242639B
:1025000002B0BDE8B040FFF741BD00BF02B0BDE87A
:10251000B040FFF73DBD00BF026A32F8023B6FF3E7
:102520005F234B60026283E5002804BF01207047EF
:1025300010B5044690F8410028B9002084F8400006
:10254000204600F021F8242084F841002068C1686A
:1025500021F40051C160204600F03AFA2068016978
:1025600021F490410161416921F02A014161C16872
:1025700041F40051C16000202021606484F84110C2
:1025800084F84210606310BD80B586B041F200014E
:102590000068C4F20101002288420592CDE90322BD
:1025A0000292019202D006B080BD00BF43F6300017
:1025B0000092C4F20200436943F01003436143698F
:1025C00003F010030093009B0092036843F00103A3
:1025D0000360006800F00100009000984FF4C060B4
:1025E00001900220CDE9020203200490072005900B
:1025F00001F5704001A9FFF73DF806B080BD00006D
:1026000090F84230202B07D100294FF0010318BF6A
:10261000002A05D11846704702231846704700BFAC
:1026200000230363816222218285C285436480F88E
:1026300042100169006819B1C16841F48071C1603C
:10264000416941F001014161C16841F02001C1606F
:1026500018467047006841F20001C4F20101884247
:1026600018BF704710B540F27004C2F20004207821
:10267000612829D160889FED1B1A00EE100AB8EE80
:10268000400A9FED192A20EE010A80EE020A9FED12
:10269000171A20EE010A10EE100A84ED010A00F06C
:1026A000D3FE083402460B4611A12046FDF776FE04
:1026B0002046FDF70EFF82B240F24010C2F2000049
:1026C0002146642300F01CF840F2401040F27001F3
:1026D000C2F20000C2F200010122BDE81040FFF783
:1026E0008FBF00BF3333534000F07F450000C84226
:1026F00054454D503A20252E326620430D0A0000E5
:102700002DE9F04381B0044690F84100202809D11A
:1027100000294FF0010018BF002A07D101B0BDE821
:10272000F08300BF022001B0BDE8F08300206064A8
:1027300021201D460E4684F841001746FFF76AF82F
:10274000A784E784A1688146B1F5805F02D1206942
:1027500000285DD037460020E28C2168002A5DD039
:102760006A1C24D0002D4AD0804600BF08680006AD
:1027700008D4FFF74FF8A0EB0900A8427AD82168E7
:10278000C868F3E717B117F8010B04E038F8020B3B
:1027900000276FF35F204860E08C0138E084E08C14
:1027A0000028E3D13AE000BF0A68120609D40A689B
:1027B000120606D40A6812065CBF0A685FEA026263
:1027C000F2D51FB117F8012B05E000BF30F8022B3E
:1027D00000276FF35F224A60E28C013AE284E28CC8
:1027E000002AE4D11AE000BF30F8022B00276FF373
:1027F0005F224A60E28C013AE284E28C72B10A689C
:10280000120635D5002FEFD017F8012BF1E700BFE6
:1028100000273046E28C2168002AA1D108684006D2
:102820001ED42DB3681C14D1086840062AD4086849
:10283000400627D40868400624D4086840064FF0B4
:102840000000F1D50DE000BF2068C16800684006B7
:1028500018D4FEF7DFFFA0EB0900A842F4D909E085
:102860000020202184F8411001B0BDE8F08300BFB2
:10287000FEF7D0FF0320202184F8411001B0BDE80D
:10288000F08300BF0020202184F8411001B0BDE892
:10289000F083000070470000FEE70000FEE7000044
:1028A000FEE700007047000070470000FEF7B8BF69
:1028B0004EF68850CEF20000016841F470010160CC
:1028C00070470000806B0021C185FFF761BB0000ED
:1028D00081B090F84210222921D183680246B3F5D5
:1028E000805F09D152F8281F52F8183C002B63D0A2
:1028F00003685B680AE000BF52F8281F13B9036938
:10290000002BF5D003685B6803F07F030B70116840
:1029100001311160C18D01390A04C18502D001B0B5
:10292000704700BF0168CA6822F02002CA60CA6806
:1029300022F48072CA604A6922F001024A612021B1
:1029400080F8421000214163026B012A3CD10163EF
:10295000016851E8031F026821F0100142E80313E7
:10296000DBB1016851E8031F026821F0100142E861
:10297000031393B1016851E8031F026821F01001AD
:1029800042E803134BB1016851E8031F026821F0CC
:10299000100142E80313002BDAD101680A68D2065D
:1029A00006D5002200920A680092496800910099B9
:1029B000818D01B0FFF7EABA026852686FF35F22B7
:1029C00021F8022B8162A5E701B0FFF743BE0000AA
:1029D000B0B50446006804F108030ECB056919433D
:1029E00025F440552A4302616269E3691143C268D4
:1029F000194349F20C639A431143C1604169A269CA
:102A000021F4407141F20043114340F48062C4F26A
:102A100001039A42416103D1FFF780F802E000BF51
:102A2000FFF768F8E1694FF69C7563681922C0F6F4
:102A3000FF75B1F5004FA0FB02011FD15A00DB0F5B
:102A4000FDF734FC48F21F51C5F2EB11A0FB012346
:102A50005A0905F1805302FB0300322303EBC00047
:102A6000A0FB01014FF4F87000EA111000EB021016
:102A7000C1F34211084421688860B0BD9A009B0FE1
:102A8000FDF714FC48F21F51C5F2EB11A0FB012326
:102A90005A0902FB0500322303EB0010A0FB0101E1
:102AA000F02000EA511000EB0210C1F3431108447A
:102AB00021688860B0BD000040F24010C2F2000002
:102AC000FFF768BAFEE7000092B0FEF7B7FE06AC6B
:102AD000201D2C21FDF71CFD0220002706904FF041
:102AE000010820460197CDF82480FFF763F801A87C
:102AF0000021CDE90277CDE90477FEF749FF43F6DF
:102B000030050697C4F20205286840F2E00640F05E
:102B1000010028602868C2F2000600F0010006905B
:102B20000698069728684FF4005240F48000286009
:102B300028684FF4006100F480000690069846F281
:102B40001040C4F20200C6E9000706F118004FF475
:102B500080738CC03046C6E90277C6E90471FEF77F
:102B600085FC40F27004C2F2000404F12809382008
:102B7000002100222666C6F83890FEF7CDFE3820E8
:102B8000FEF7B8FECDE90877CDE9067701976869C9
:102B900041F2000A40F4807068616869C4F2010A79
:102BA00000F48070019001980AF5805004F1280229
:102BB0004FF4803183C2484684F84080C4F8448092
:102BC00084F85880C4E90D77C4F83C80FEF75EF9BC
:102BD0000620089006A94846CDE90688FEF7B2F817
:102BE0000697686940F2401640F010006861686915
:102BF000C2F2000600F01000069006984FF4E13093
:102C00000C21C6E900A03046C6E90277C6E9047186
:102C1000B761FFF789FC252001210022FEF77CFE29
:102C20002520FEF767FEA11C48460122FEF712FA96
:102C3000304621460122FFF7E3FC00BFFEE75FEAD2
:102C4000400C08BF91F0000F4FEA8C234FEAC122DD
:102C500043EA51514FEA1C5018BF00F5F0404FEACB
:102C6000300018BF41F000415FEA6C5C00F0298041
:102C7000BCF1FF3F08BF40F080407047130C06BF17
:102C800012044FF0100C4FF0000C130E04BF120290
:102C90000CF1080C130F04BF12010CF1040C930F7C
:102CA00004BF92000CF1020CD30F04BF52000CF1D0
:102CB000010C11464FF00002A0F11F00A0EB0C0028
:102CC000704711F0004F08BF704731F000413FF4EA
:102CD000D5AF0B0C06BF09044FF0100C4FF0000CE1
:102CE0000B0E04BF09020CF1080C0B0F04BF090105
:102CF0000CF1040C8B0F04BF89000CF1020CCB0FFC
:102D000004BF49000CF1010CCCF1200322FA03F3BB
:102D100041EA030102FA0CF2A0EB0C0000F1010001
:102D20007047000023F07F4720F07F4C80EA0300CB
:102D300000F00040ACEB070303F57C5303F1FF0305
:102D40002DE9804909B44FEA144324EA03484FEAC5
:102D5000154B25EA0B4E0FF2042606EB13273E789F
:102D600003FB0667C7F5000707FB06F64FEAD646E2
:102D700006F102064FEA543707FB066CCCF1005C03
:102D80004FEA1C472CEA074C0CFB06F507FB06F440
:102D900004EB15464FEA961649085FEA320234BF43
:102DA00000204FF000404FEAD13706FB07FC4FEA06
:102DB0001C4C0CFB0BF7D21B03FB0CF761EB070160
:102DC0000CFB0EF7B0EB074072EB17420CFB08F759
:102DD00034BFA2EB0742B2EB074261EB17414FEA67
:102DE0000C444FEA910706FB07FC4FEA1C4C0CFB16
:102DF0000BF7B0EBC74072EB573203FB0CF734BF55
:102E0000A2EBC742B2EBC74261EB57310CFB0EF7A6
:102E1000B0EBC70072EB57720CFB08F734BFA2EBA4
:102E2000C702B2EBC70261EB57714FEA816141EA19
:102E300092114FEA826242EA90124FEA806004EBFC
:102E4000CC04039F4FEAD13706FB07FC4FEA1C4C2A
:102E50000CFB0BF7D21B03FB0CF761EB07010CFB20
:102E60000EF7B0EB074072EB17420CFB08F734BFCC
:102E7000A2EB0742B2EB074261EB17414FEA8C55D8
:102E800004EB9C244FEA910706FB07FC4FEA1C4C1D
:102E90000CFB0BF7B0EBC74072EB573203FB0CF7A0
:102EA00034BFA2EBC742B2EBC74261EB57310CFB18
:102EB0000EF7B0EBC70072EB57720CFB08F734BF8C
:102EC000A2EBC702B2EBC70261EB57714FEA816117
:102ED00041EA92114FEA826242EA90124FEA806020
:102EE00015EB4C2544F100044FEAD13706FB07FCF3
:102EF0004FEA1C4C0CFB0BF7D21B03FB0CF761EBEE
:102F000007010CFB0EF7B0EB074072EB17420CFB0E
:102F100008F734BFA2EB0742B2EB074261EB17415F
:102F20004FEA813141EA92414FEA823242EA9042CD
:102F30004FEA80304FEA0C7615EB1C1544F1000483
:102F400048EA03434EEA0B484FF0000EB2EB080C80
:102F500071EB030724BF624639464EEB0E0E4FF06D
:102F6000000B0018524149414BEB0B0BB2EB080C24
:102F700071EB03077BF1000B24BF624639464EEB31
:102F80000E0E4FF0000B0018524149414BEB0B0B5A
:102F9000B2EB080C71EB03077BF1000B24BF624618
:102FA00039464EEB0E0E51EA020718BF46F00106F5
:102FB00016EB0E7655F1000254F1000103D5BDE881
:102FC0008901BDE80088BDE88901BDE80048B6195F
:102FD000524141EB0101A3F10103704780807F7EE4
:102FE0007D7C7B7A7978777676757473727171707F
:102FF0006F6E6E6D6C6C6B6A6A6968686766666531
:103000006464636362616160605F5F5E5E5D5D5CBE
:103010005C5B5B5A5A59595858575756565555552F
:103020005454535352525251515050504F4F4F4E8F
:103030004E4D4D4D4C4C4C4B4B4B4A4A4A494949DD
:10304000484848474747474646464545454444441F
:103050004443434343424242424141419C46002B48
:1030600030D477002BD04FEA37071CB503B44FF0AC
:1030700010004FF01001BAF1000F06D0BCF1000FA4
:10308000DCBF40F0080040F008014FF000000FBC2A
:10309000BDE810400BF1010BBBF1010F08BF5FEA67
:1030A000170722BF12F1010211F101014FF0004197
:1030B00043F1000300F0004043EA00007047F9D3F9
:1030C0005708D0E746EA06464FEA164613F1400F86
:1030D0001FDD13F1200FDFBF16430A460021203306
:1030E0005B42BED0C3F1200746EA06464FEA1646C9
:1030F00002FA07F746EA070622FA03F2C3F12007AD
:1031000001FA07F742EA070221FA03F14FF0000340
:10311000A7E746EA020646EA06464FEA164646EAA8
:103120000106BCBF46EA0646360C4FF000034FF0DE
:1031300000024FF0000194E72DE9804C70B49A46EC
:10314000934691E8380007C831EA400C48BF34EA9A
:10315000430C03D5FFF7E6FDFFF780FFF0BCBDE8A9
:10316000008C2DE9804C70B49A46934691E8380063
:1031700007C810F0804F08BF13F0804F03D100F054
:1031800005F8FFF76BFFF0BCBDE8008C20F07F472F
:1031900023F07F4C80EA030000F0004007EB0C03B3
:1031A000A3F57C53A3F1FE0392F0000F00F0B3806F
:1031B00095F0000F00F077802DE901494FEA1140AA
:1031C00021EA00484FEA144624EA064700FB06FCC1
:1031D00008FB06F607FB08F818EB06484CEB164C04
:1031E00000FB07F718EB07484CEB17404FEA124B70
:1031F00022EA0B4E4FEA154625EA06470BFB06FC72
:103200000EFB06F607FB0EFE1EEB064E4CEB164CB5
:103210000BFB07F71EEB074E4CEB174B18EB0B089D
:1032200040F1000018EB0E0B58EB000840F10000D5
:103230008F1A4FF000014FF000063CBFC943661BD8
:1032400014BFB5EB040C00213CBFC943F61B4FEA89
:10325000174427EA04454FEA1C472CEA074C04FBB5
:10326000076205FB07F70CFB05F616EB074642EB7A
:10327000174204FB0CFC16EB0C4642EB1C421BEB0A
:10328000060658EB020241414EEA8E0E46EA9E06C1
:1032900001D5BDE80189B619524141EB0101A3F105
:1032A0000103BDE801894FEA144524EA05464FEAC7
:1032B000114721EA074C05FB07F406FB07F70CFB57
:1032C00006F111EB074144EB174405FB0CFC11EB35
:1032D0000C4144EB1C444FEA124722EA074C05FB21
:1032E00007F206FB07F70CFB06F616EB074642EB68
:1032F000174205FB0CFC16EB0C4642EB1C456A180A
:1033000054F1000148BF7047B619524141EB010129
:10331000A3F10103704795F0000F37D04FEA114237
:1033200021EA02464FEA144724EA074C02FB07F160
:1033300006FB07F70CFB06F414EB074441EB1741BF
:1033400002FB0CFC14EB0C4441EB1C414FEA15470B
:1033500025EA074C02FB07F506FB07F70CFB06F610
:1033600016EB074645EB174502FB0CFC16EB0C462B
:1033700045EB1C42121951F1000148BF7047B619C4
:10338000524141EB0101A3F1010370474FEA14459B
:1033900024EA05464FEA114721EA074C05FB07F1ED
:1033A00006FB07F70CFB06F212EB074241EB174155
:1033B00005FB0CFC12EB0C4251EB1C414FF00006DC
:1033C00048BF7047921841EB0101A3F10103704718
:1033D00003B401984100009850EAC12018BF0420AE
:1033E0004A0D18BF40F0010040F2FF72B2EB515F8E
:1033F00008BF40F00200012808BF052002B0704756
:1034000030380A2801D201207047002070470000A0
:1034100010B500290AD00878002807D0054878445C
:10342000FDF7FAFB002801D0002010BD02487844C7
:1034300010BD0000FE010000F60100000808A0F524
:1034400000114FEA3101704743004FEAD30C4FEAB5
:103450003C0C43401FBF40070CF1605113F0FE4F7E
:1034600070471CF0006F03D10CF000410020704742
:103470000CF0004343EA507040EACC0010B500F075
:103480000EF800BF000000924FEA0001FFF7D6BF20
:103490004FF00041A1F500214FF0000070470EF100
:1034A000020E2EF0030E5EF8044B244204D44FEAC1
:1034B0004102B2F17F4F11D84FEA4003B3F17F4F81
:1034C0000CD80ED14FEAD07C0CEB4C0C0CF1020C5A
:1034D000B2F17F4F08BF4CEBD17C04E04FF0080CF9
:1034E00001E04FEAD17C0CEB4C0324FA03F404F026
:1034F0000704B4F1040C06D20EEB840CBDE81040B6
:103500004CF0010C6047DFE80CF0070802024FF0B6
:103510000040A0F5800010BD0846420018BFD2F15F
:10352000807288BF00F0004010BDF1EE100A4FF627
:10353000FF71C0F2C03120EA010040F04070E1EEBE
:10354000100A7047FDF7E6B802400000000000A036
:103550000000000005400000000000C8000000005E
:103560000C4000000000409C0000000019400000DA
:103570000020BCBE0000000034400000BFC91B8E0C
:1035800000000004B5400000504BCFD06607E2CFEA
:10359000010000006C4100003E8251AADFEEA7341A
:1035A00001000000D9420000DCB5A0E23A301F97CC
:1035B000FFFFFFFFB4450000FD25A0C8E9A3C14FF0
:1035C000FFFFFFFFFF3F0000000000800000000041
:1035D000FF3F00000000008000000000000000002D
:1035E00000000000010203040607080900000000B3
:1035F00001020304000610160006101638360008F3
:103600000000002010000000EC010008483600080F
:1036100010000020800700000C0200081C000000C1
:1036200043000000F8FFFFFF0C0000000E00000048
:103630000F0000002E00000001000000100000003C
:083640000024F400000000006A
:040000050800018965
:00000001FF
