:020000040800F2
:10000000C0060020290200086111000885100008C0
:100010005D11000821040008091600080000000016
:100020000000000000000000000000009511000822
:1000300025040008000000009111000805120008C6
:10004000430200084302000843020008430200087C
:10005000430200084302000843020008430200086C
:10006000430200084302000843020008430200085C
:10007000430200084302000843020008430200084C
:10008000430200084302000843020008430200083C
:10009000430200084302000843020008430200082C
:1000A000430200084302000843020008430200081C
:1000B000430200084302000843020008430200080C
:1000C00043020008430200084302000843020008FC
:1000D00043020008430200084302000843020008EC
:1000E00043020008430200084302000843020008DC
:1000F00043020008430200084302000843020008CC
:1001000043020008430200084302000843020008BB
:1001100043020008430200084302000843020008AB
:10012000430200084302000843020008430200089B
:10013000430200084302000843020008430200088B
:10014000430200084302000843020008430200087B
:10015000430200084302000843020008430200086B
:10016000430200084302000843020008430200085B
:100170004302000843020008430200080000000098
:10018000430200084302000800F002F800F03CF8C7
:100190000AA090E8000C82448344AAF10107DA45E2
:1001A00001D100F031F8AFF2090EBAE80F0013F0F8
:1001B000010F18BFFB1A43F0010318470015000098
:1001C00020150000103A24BF78C878C1FAD8520729
:1001D00024BF30C830C144BF04680C6070470000C1
:1001E0000023002400250026103A28BF78C1FBD840
:1001F000520728BF30C148BF0B6070471FB501F0E0
:1002000048FA1FBD10B510BD00F0D0F81146FFF739
:10021000F5FF01F025FA00F0EEF803B4FFF7F2FF66
:1002200003BC00F0F5F80000094880470948004782
:10023000FEE7FEE7FEE7FEE7FEE7FEE7FEE7FEE796
:10024000FEE7FEE704480549054A064B70470000F3
:10025000A912000889010008C0000020C006002083
:10026000C0020020C002002053EA020C00F06980A6
:100270002DE9F04B4FF00006002B1FBFB3FA83F5BA
:1002800003FA05F424FA05F65E4012BF1643B2FAEB
:1002900082F502FA05F4C5F120051EBF22FA05FC1D
:1002A00044EA0C04203556EA044C4FEA144418BFC3
:1002B000641C4FF000084FF00009904271EB030CF2
:1002C00039D3002919BFB1FA81F701FA07F6B0FA5C
:1002D00080F700FA07F6C7F120071EBF20FA07FCD7
:1002E00046EA0C062037B6FBF4FCA7EB0507103FE7
:1002F00007F01F0BCBF120062CFA06F60CFA0BFBCD
:1003000044BFB3460026202FA4BF5E464FF0000B2B
:100310005BEA060C08BF4FF0010B19EB0B0948EB29
:100320000608ABFB027C06FB02CC0BFB03CCC01B1C
:1003300071EB0C01C1E70B46024641464846BDE859
:10034000F08B13B5084318BF4FF0FF300146AFF3F1
:100350000080BDE81C4070474FF0000200B5134616
:1003600094469646203922BFA0E80C50A0E80C50D5
:10037000B1F12001BFF4F7AF090728BFA0E80C5086
:1003800048BF0CC05DF804EB890028BF40F8042B7F
:1003900008BF704748BF20F8022B11F0804F18BFEC
:1003A00000F8012B7047704770477047754600F0A2
:1003B0002BF8AE4605006946534620F007008546F7
:1003C00018B020B5FFF73EFFBDE820404FF0000613
:1003D0004FF000074FF000084FF0000BAC46ACE8C0
:1003E000C009ACE8C009ACE8C009ACE8C00921F01C
:1003F00007018D46704710B50446AFF300802046D4
:10040000BDE81040FFF709BF00487047100000200A
:1004100001491820ABBEFEE726000200704700002D
:10042000FEE700007047000072B600BFFEE7000064
:10043000B0B5044600F0DEF8054640F20400C2F212
:1004400000000078611C18BF044400BF00F0D2F81F
:10045000401BA042FAD3B0BD2DE9F04F83B000F1AC
:100460003E4202F1FF724FEAB22241F6004701928A
:10047000C4F2020708224FF0010E00254FF0000AD7
:100480004FF00008B84208BF072200920AE000BF00
:1004900008F101080AF1040AB8F1100F05F102058C
:1004A00000F0A4800C680EFA08FB14EA0B09EFD0E8
:1004B0004C6804F0030CACF1010EBEF1010F11D831
:1004C0000322876802FA05F6CA68B743AA403A438E
:1004D00082604268C4F3001722EA0B0207FA08F7A9
:1004E0003A434260BCF1030F1CD0C26803238E68FC
:1004F00003FA05F7BA4306FA05F73A43BCF1020FCF
:10050000C2600FD16FF0030202EA580202440AF0FF
:100510001C060F23176A03FA06F40B69A743B340BE
:100520003B431362026803234F68AB409A4307F0D2
:100530000303AB401A4317F4403F4FF0010E026033
:10054000A6D0002243F644030292C4F202031A68C2
:1005500043F6004442F480421A601A68C4F201046F
:1005600002F480420292029A28F003024FF6084BEE
:100570002244CFF6FF7B52F80B300AF00C070F260F
:10058000BE4023EA060C019B009E072B38BF1E4687
:1005900006FA07F747EA0C0342F80B30A2684B68EB
:1005A00042EA090743F60C4CDE0258BF22EA09076B
:1005B000A760C4F2010CDCF800209E0242EA0907A1
:1005C00058BF22EA0907CCF8007062689E0342EA2D
:1005D000090758BF22EA090767602268DB0342EA7D
:1005E000090358BF22EA0903236051E703B0BDE8BD
:1005F000F08F000040F2B800C2F2000000687047BF
:1006000040F2040040F2B801C2F20000C2F2000160
:1006100000780A68104408607047000080B543F60F
:100620000040C4F20200016841F4007101600168F9
:1006300041F480610160016841F480710160032030
:1006400000F05CF80F2000F005F800F02BF8002017
:1006500080BD0000B0B540F20402C2F2000240F2D8
:1006600000011278C2F200014FF47A730968B3FBFB
:10067000F2F20446B1FBF2F1084600F0C9FA0F2C81
:100680004FF001050CD858B94FF0FF302146002239
:10069000002500F023F840F20800C2F200000460D8
:1006A0002846B0BD82B0002043F640010190C4F25C
:1006B00002014A6842F480424A604A6802F4804279
:1006C0000192019A0090086840F080500860086824
:1006D00000F080500090009802B0704770B514464A
:1006E0000D46064600F092FF2946224600F03AFDEC
:1006F0000146304600F092FF70BD000080B500F06A
:100700009FFF80BD2DE9F041002800F08B8043F66B
:100710000808C4F202080446D8F8F8030D4600F0B1
:100720000700884207D288F8F853D8F8F80300F099
:100730000700A84276D12068810717D5410705D563
:10074000D8F8001041F4E051C8F80010010705D5B1
:10075000D8F8001041F46041C8F80010D8F8001033
:10076000A26821F0F0011143C8F80010C0073FD182
:10077000D8F8F80300F00700A84207D988F8F85322
:10078000D8F8F80300F00700A8424BD120684107D1
:1007900007D5D8F80010E26821F4E0511143C8F8F9
:1007A0000010000708D5D8F80000216920F4604047
:1007B00040EAC100C8F8000000F054F8D8F8001072
:1007C00041F2AC62C1F30311C0F60002515C40F289
:1007D000000220FA01F140F20800C2F200000068B5
:1007E000C2F200021160FFF735FF0020BDE8F08182
:1007F0006068811E022907D258F8081C89015CBF75
:100800000120BDE8F08110E0012807D158F8081C4C
:1008100089035CBF0120BDE8F08106E058F8081CA0
:10082000890702D40120BDE8F081D8F8001021F03A
:1008300003010843C8F80000FFF7DCFE064641F25A
:10084000883700BFD8F80000616800F00C00B0EBFA
:10085000810F8DD0FFF7CEFE801BB842F2D9032066
:10086000BDE8F08110B543F60404C4F202046068E8
:1008700000F00C0008280AD0042819BF42F20040FA
:10088000C0F2F40047F64000C0F27D1010BD2068B1
:1008900021682368490247F64001C0F27D1100F04B
:1008A0003F02C3F388105CBF42F20041C0F2F40182
:1008B000A1FB00010023FFF7D7FC21680222C1F34E
:1008C000014102EB4101B0FBF1F010BD2DE9F04117
:1008D00082B0002800F09F800446007843F60006AE
:1008E000C007C4F2020641D0B06800F00C00042832
:1008F00005D13068800339D56068B8BB8BE0B0683B
:1009000000F00C00082802D170684002F1D465683C
:10091000B5F5803F06D03068B5F5A02F06D140F47C
:1009200080203060306840F4803005E020F4803072
:100930003060306820F480203060FFF75BFE002DCF
:10094000054610D03068800310D4FFF753FE401BDB
:100950006428F7D922E100BFFFF74CFE401B642852
:100960004FF0030054D830688003F5D42078800716
:100970001AD5B06810F00C0F09D0B06800F00C0068
:10098000082840F08C807068400200F18880306850
:10099000800702D5E06801283DD13068216920F048
:1009A000F80040EAC10030602078000737D4207892
:1009B00040074AD4A56955B3B06800F00C00082878
:1009C00040F0A080012D26D07068E16900F480021B
:1009D0008A4220D1216A00F03F028A421BD147F6A9
:1009E000C071626A0140B1EB821F14D1A16A4FF657
:1009F000FF73C903994300F44032A1F580318A4264
:100A000009D1E16A00F07060B0EB016F03D1002002
:100A100002B0BDE8F081012002B0BDE8F08160695C
:100A2000002840F20000C4F247205AD00121C0F84B
:100A3000801EFFF7DFFD0546706F8007B7D4FFF714
:100A4000D9FD401B0228F7D9A8E0306C4FF0000810
:100A5000C0000CD4CDF80480306C4FF0010840F099
:100A600080503064306C00F080500190019847F263
:100A70000007C4F200073868C00525D4386840F480
:100A800080703860FFF7B6FD054600BF3868C005C6
:100A90001AD4FFF7AFFD401B0228F7D97EE0E068CB
:100AA000002851D00020C4F2472001210160FFF747
:100AB000A1FD0546306880073FF56FAFFFF79AFD4F
:100AC000401B0228F6D969E0A568012D05D0306FDA
:100AD000052D4DD140F004003067306F40F001002B
:100AE0004CE00021C0F8801EFFF784FD054600BFE2
:100AF000706F80077FF55BAFFFF77CFD401B02281E
:100B0000F6D94BE00027C4F2472700203866FFF7EC
:100B100071FD022D05460BD13068800156D5FFF7D7
:100B200069FD401B02284FF00300F5D970E700BFB4
:100B3000306880017FF56BAFFFF75CFD401B02283A
:100B40004FF00300F4D963E70020C4F247200021EE
:100B50000160FFF74FFD0546306880077FF524AF41
:100B6000FFF748FD401B02284FF00300F4D94FE780
:100B700020F001003067306F20F004003067FFF78D
:100B800039FD002D054641F2883713D0306F8007BC
:100B900013D4FFF72FFD401BB842F7D9032002B052
:100BA000BDE8F081FFF726FD401BB8424FF003007F
:100BB0003FF62EAF306F8007F4D4B8F1000F3FF44A
:100BC000F9AE306C20F080503064F3E604F11C057F
:100BD0002FCD084340EA8210D9034FF6FF729143AC
:100BE000A1F5803140EA0560084370600120386655
:100BF000FFF700FD044600BF306880013FF507AFF6
:100C0000FFF7F8FC001B02284FF00300F4D9FFE6C1
:100C100080B500F0DFFA80BD10B590F83C20012AC5
:100C20004FF0020252D0012380F83C3080F83D2082
:100C30000268D2F804E0D2F808C00C682EF0700305
:100C4000234341F2FF74C4F20004A24253600DDC5E
:100C500040F2FF73C4F200039A4215DCB2F1804FF8
:100C600029D040F20043C4F2000322E040F2FF33F7
:100C7000C4F201039A4212DC41F60003C4F20003FD
:100C80009A4218D0002312E040F60003C4F2000399
:100C90009A4210D040F60043C4F2000309E044F247
:100CA0000003C4F201039A4205D040F20043C4F2AB
:100CB00001039A4204D149682CF0800319439160E2
:100CC0000121002280F83D1080F83C20104610BD24
:100CD000002804BF0120704710B5044690F83D007D
:100CE00028B9002084F83C00204600F01FF80220BC
:100CF00084F83D002068211D00F0E0FA012084F80E
:100D0000460084F83E0084F83F0084F8400084F8F0
:100D1000410084F8420084F8430084F8440084F8D9
:100D2000450084F83D00002010BD000081B000683F
:100D3000B0F1804F01D001B070470020009043F621
:100D40004000C4F20200016841F001010160006846
:100D500000F001000090009801B0704710B5044603
:100D600090F83C0001284FF0020008BF10BD01229E
:100D700084F83C2084F83D0020684FF67773826841
:100D80009A4382600A684F2A0FDC1F2A22DD202A3C
:100D900023D0302A21D0402A4DD14B68CA68194649
:100DA00000F00EFC206840213BE06F2A17DDB2F511
:100DB000005F20D0B2F5805F2AD0702A3BD1D1E904
:100DC000012CCB68614600F021FB2068816841F06E
:100DD00077011AE00AB1102A2DD1114621E0502ADC
:100DE00018D0602A27D14B68CA68194600F0FAFB70
:100DF0002068602115E0D1E9012CCB68614600F044
:100E000005FB2068816841F48041816000200BE08F
:100E1000002009E04B68CA68194600F0D1FB206841
:100E2000502100F0FFFA0020012184F83D1000213C
:100E300084F83C1010BD0120F6E7000080B586B0B4
:100E400000210591CDE9031100680291B0F1804FB6
:100E5000019101D006B080BD43F630000091C4F28C
:100E60000200026842F0010202600068022200F003
:100E700001000090009801200190CDE90221CDE908
:100E800004100020C4F2020001A9FFF7E5FA06B041
:100E900080BD0000B0B5044690F83C00012804BFB6
:100EA0000220B0BD0D464FEAB2010120032984F8AB
:100EB0003C0037D8DFE801F0020A122220682946F8
:100EC00000F0B8FA206850F8181F0EE02068294694
:100ED00000F0E2FA206850F8181F16E02068294652
:100EE00000F010FB206850F81C1F41F00801016061
:100EF000016821F00401016029690FE0206829469A
:100F000000F036FB206850F81C1F41F400610160BE
:100F1000016821F4806101602969090202681143B6
:100F200001600020002184F83C10B0BD002804BFFF
:100F30000120704710B5044690F83D0028B9002004
:100F400084F83C00204600F01FF8022084F83D00A1
:100F50002068211D00F0B2F9012084F8460084F8D1
:100F60003E0084F83F0084F8400084F8410084F893
:100F7000420084F8430084F8440084F8450084F873
:100F80003D00002010BD00007047000010B5044671
:100F900041B1082909D0042914BF04F1410004F12A
:100FA0003F0004E004F13E0001E004F1400000785D
:100FB00001281CBF012010BD022041B1082909D021
:100FC000042914BF84F8410084F83F0004E084F849
:100FD0003E0001E084F840002068012200F004FA9D
:100FE000206840F2004140F48062C4F201018A426C
:100FF00003D1426C42F40042426441F2FF72C4F2F7
:10100000000290420DDC40F2FF71C4F20001884200
:1010100017DCB0F1804F27D040F20041C4F200014C
:1010200020E040F2FF32C4F20102904214DC41F6AB
:101030000001C4F20001884216D00021C4F201016F
:1010400010E040F60001C4F2000188420CD040F6E6
:101050000041C4F2000105E044F20002C4F20102C2
:10106000904201D0884206D1816801F0070106292B
:1010700004BF002010BD016841F0010101600020A3
:1010800010BD0000FEE7000081B00020009043F694
:101090003000C4F20200016841F001010160006803
:1010A00000F001000090009801B0704710B58EB0BC
:1010B00040F270000021C2F200004FF080423F2356
:1010C00044F61F640D91CDE90B11CDE90911CDE96D
:1010D0000711CDE90511CDE90311CDE90111C0E9F1
:1010E0000023C0E9021401618161FFF7F1FD90BBAB
:1010F0004FF480500A9040F27000C2F200000AA93A
:10110000FFF72CFE38BB40F27000C2F20000FFF780
:101110000DFF00BB40F270000024C2F2000008A9DD
:10112000CDE90844FFF778FDA8B96020CDE90104B6
:1011300040F27000C2F2000001A90022039405945D
:10114000FFF7A8FE38B940F27000C2F20000FFF7C6
:1011500075FE0EB010BDFFF767F90000FEE7000056
:10116000FEE7000000F0070080F00703042B28BF13
:1011700004234FF0FF3C03380CFA03F338BF002080
:10118000994381400CFA00F022EA000008437047BE
:10119000704700007047000080B540F27000C2F256
:1011A00000000021FFF7F2FE80BD00004FF47A71CD
:1011B000484346F617428008C1F2C162A0FB020212
:1011C00040F27000C2F20000006801EB920141633E
:1011D00070470000B0B501380024B4EB106F1CBF9D
:1011E0000120B0BD4EF21005CEF2000568604FF050
:1011F000FF300F2100F012FA0720AC602860204673
:10120000B0BD000080B5FFF7FBF980BD70B592B0AE
:1012100006AC20463021FFF79FF8002543F640003A
:101220000595CDE90355CDE901550095C4F20200BD
:101230000168022641F080510160006800F0805092
:101240000090009847F200000095C4F20000016889
:1012500041F480410160006800F4804000900098F3
:101260000120099010200A9008200696CDE90C650F
:101270000E904020CDE90F06042011902046FFF784
:1012800025FB78B90F20CDE901064FF48050039576
:10129000CDE9040501A80221FFF734FA002804BFB4
:1012A00012B070BDFFF7C0F84EF68850CEF20000C5
:1012B000016841F4700101607047000010B540F60C
:1012C000FF3E0368C4F2000E40F2004C7045C4F2C9
:1012D000010C0FDCB0F1804F19D040F20042C4F293
:1012E0000002904213D040F60002C4F20002904285
:1012F0000DD010E040F60042C4F20002904206D049
:10130000604504D00022C4F20102904203D14A6831
:1013100023F07003134341F6FF72C4F200029042BF
:101320000DDC70451FDCB0F1804F41D040F200422F
:10133000C4F2000290423BD040F6000221E043F6A6
:10134000FF72C4F20102904220DC42F20002C4F2B9
:10135000000290422CD00022C4F20102904227D019
:10136000604525D028E040F60042C4F200029042D9
:101370001ED041F60002C4F20002904218D041F69D
:101380000042C4F20002904212D015E044F2000282
:10139000C4F2010290420BD044F60002C4F20102F2
:1013A000904205D044F20042C4F20102904203D1BF
:1013B000CA6823F44073134323F08002D1F800E09D
:1013C0004B698C681A43C46240F48063C0F828E01B
:1013D000634504BF09690163016841F004010160CC
:1013E00001214161026010BD80B501F01F014FF085
:1013F000010CD0F820E00CFA01F32EEA030303629B
:10140000036A02FA01F11943016280BDD0F808C0F5
:1014100011432CF47F4C41EA032141EA0C01816025
:1014200070470000826822F07002114341F007010A
:1014300081607047B0B5026A036A22F0020223F0AD
:1014400001030362D0F804E083690C6823F073039E
:101450008D6843EA040C40F2004440F48063C4F217
:101460000104A34242EA050205D1CD6822F00C0234
:1014700025F004052A43A34206D1D1E905542EF4F0
:1014800040732B4343EA040EC0F804E0C0F818C0D0
:10149000496841630262B0BD70B5026A036A22F016
:1014A000200223F010030362D0F804E083690C6883
:1014B00023F4E6438D6843EA042C40F2004440F4F0
:1014C0008063C4F20104A34242EA051207D1CD6849
:1014D0006FF0400622F0C00206EA05152A43A34237
:1014E00007D1D1E905652EF4406343EA860343EA58
:1014F000850EC0F804E0C0F818C049688163026234
:1015000070BD000070B5026A036A22F4007223F411
:1015100080730362D0F804E0C3690C6823F073039E
:101520008D6843EA040C40F2004440F48063C4F246
:101530000104A34242EA052207D1CD6840F2FF46EA
:101540002D0222F44062B5432A43A34207D1D1E9D8
:1015500005652EF4405343EA061343EA051EC0F81E
:1015600004E0C0F81CC04968C163026270BD00009D
:1015700010B5D0F820C0026A40F2004422F4805234
:1015800002624268C369C4F2010423F4E64E40F4E7
:101590008063A3420B688C684EEA032E2CF4005340
:1015A00043EA043C04D14B6922F4804242EA8312AC
:1015B0004260C0F81CE049680164C0F820C010BD5A
:1015C000D0F820C0036A23F001030362836923F08B
:1015D000F00343EA02122CF00A031943826101620C
:1015E00070470000D0F820C0036A23F010030362A4
:1015F000836923F4704343EA02322CF0A00343EAE8
:101600000111826101627047FEE700004EF60C5046
:10161000CEF200000068C0F3022070474EF614536B
:1016200000F00F02CEF2000309011A4400F16043FA
:10163000B0F1FF3FC8BF03F564421170704700006E
:101640004EF60C51CEF200010A684FF6FF031A4025
:1016500060F30A2242F0806040F0FD70086070473D
:10166000FEF7DCFFFFF7D2FDFFF70EFDFFF71EFDD3
:10167000FFF792FD0020FFF799FD4FF47A70FEF717
:10168000D7FEB420FFF792FD4FF47A70FEF7D0FE3C
:10169000FEE7F1EE100A4FF6FF71C0F2C03120EA0A
:1016A000010040F04070E1EE100A704700000000B9
:1016B000000000000102030406070809E016000804
:1016C0000000002010000000C4010008F01600080F
:1016D00010000020B0060000E0010008000000003B
:1016E0000024F400010000001000000000000000D1
:040000050800018965
:00000001FF
