:020000040800F2
:10000000080700202902000801110008B50F0008A8
:10001000FD10000821040008CD13000800000000B6
:100020000000000000000000000000003511000882
:1000300025040008000000003111000869110008C3
:10004000430200084302000843020008430200087C
:10005000430200084302000843020008430200086C
:10006000430200084302000843020008430200085C
:10007000430200084302000843020008430200084C
:10008000430200084302000843020008430200083C
:10009000430200084302000843020008430200082C
:1000A000430200082112000843020008430200082E
:1000B000430200084302000843020008430200080C
:1000C00043020008430200084302000843020008FC
:1000D00043020008430200084302000843020008EC
:1000E00043020008430200084302000843020008DC
:1000F00043020008430200084302000843020008CC
:1001000043020008430200084302000843020008BB
:1001100043020008430200084302000843020008AB
:10012000430200084302000843020008430200089B
:10013000430200084302000843020008430200088B
:10014000430200084302000843020008430200087B
:10015000430200084302000843020008430200086B
:10016000430200084302000843020008430200085B
:100170004302000843020008430200080000000098
:10018000430200084302000800F002F800F03CF8C7
:100190000AA090E8000C82448344AAF10107DA45E2
:1001A00001D100F031F8AFF2090EBAE80F0013F0F8
:1001B000010F18BFFB1A43F001031847C8120000D3
:1001C000E8120000103A24BF78C878C1FAD8520764
:1001D00024BF30C830C144BF04680C6070470000C1
:1001E0000023002400250026103A28BF78C1FBD840
:1001F000520728BF30C148BF0B6070471FB501F0E0
:100200002CF91FBD10B510BD00F0D0F81146FFF756
:10021000F5FF01F017F900F0EEF803B4FFF7F2FF75
:1002200003BC00F0F5F80000094880470948004782
:10023000FEE7FEE7FEE7FEE7FEE7FEE7FEE7FEE796
:10024000FEE7FEE704480549054A064B70470000F3
:100250000D1200088901000808010020080700208D
:10026000080300200803002053EA020C00F0698014
:100270002DE9F04B4FF00006002B1FBFB3FA83F5BA
:1002800003FA05F424FA05F65E4012BF1643B2FAEB
:1002900082F502FA05F4C5F120051EBF22FA05FC1D
:1002A00044EA0C04203556EA044C4FEA144418BFC3
:1002B000641C4FF000084FF00009904271EB030CF2
:1002C00039D3002919BFB1FA81F701FA07F6B0FA5C
:1002D00080F700FA07F6C7F120071EBF20FA07FCD7
:1002E00046EA0C062037B6FBF4FCA7EB0507103FE7
:1002F00007F01F0BCBF120062CFA06F60CFA0BFBCD
:1003000044BFB3460026202FA4BF5E464FF0000B2B
:100310005BEA060C08BF4FF0010B19EB0B0948EB29
:100320000608ABFB027C06FB02CC0BFB03CCC01B1C
:1003300071EB0C01C1E70B46024641464846BDE859
:10034000F08B13B5084318BF4FF0FF300146AFF3F1
:100350000080BDE81C4070474FF0000200B5134616
:1003600094469646203922BFA0E80C50A0E80C50D5
:10037000B1F12001BFF4F7AF090728BFA0E80C5086
:1003800048BF0CC05DF804EB890028BF40F8042B7F
:1003900008BF704748BF20F8022B11F0804F18BFEC
:1003A00000F8012B7047704770477047754600F0A2
:1003B0002BF8AE4605006946534620F007008546F7
:1003C00018B020B5FFF73EFFBDE820404FF0000613
:1003D0004FF000074FF000084FF0000BAC46ACE8C0
:1003E000C009ACE8C009ACE8C009ACE8C00921F01C
:1003F00007018D46704710B50446AFF300802046D4
:10040000BDE81040FFF709BF00487047100000200A
:1004100001491820ABBEFEE726000200704700002D
:10042000FEE700007047000072B600BFFEE7000064
:100430002DE9F04F83B000F13E4202F1FF724FEA26
:10044000B22241F600470192C4F2020708224FF09F
:10045000010E00254FF0000A4FF00008B84208BF17
:10046000072200920AE000BF08F101080AF1040A1D
:10047000B8F1100F05F1020500F0A4800C680EFA27
:1004800008FB14EA0B09EFD04C6804F0030CACF144
:10049000010EBEF1010F11D80322876802FA05F69A
:1004A000CA68B743AA403A4382604268C4F300175F
:1004B00022EA0B0207FA08F73A434260BCF1030F45
:1004C0001CD0C26803238E6803FA05F7BA4306FA04
:1004D00005F73A43BCF1020FC2600FD16FF003027F
:1004E00002EA580202440AF01C060F23176A03FAB4
:1004F00006F40B69A743B3403B431362026803232E
:100500004F68AB409A4307F00303AB401A4317F41C
:10051000403F4FF0010E0260A6D0002243F6440394
:100520000292C4F202031A6843F6004442F4804285
:100530001A601A68C4F2010402F480420292029A1C
:1005400028F003024FF6084B2244CFF6FF7B52F807
:100550000B300AF00C070F26BE4023EA060C019B65
:10056000009E072B38BF1E4606FA07F747EA0C0322
:1005700042F80B30A2684B6842EA090743F60C4C7C
:10058000DE0258BF22EA0907A760C4F2010CDCF8BA
:1005900000209E0242EA090758BF22EA0907CCF868
:1005A000007062689E0342EA090758BF22EA090701
:1005B00067602268DB0342EA090358BF22EA0903A5
:1005C000236051E703B0BDE8F08F0000002A08BFA8
:1005D000090481617047000040F20010C2F200007F
:1005E0000068704740F2040040F20011C2F20000BF
:1005F000C2F2000100780A681044086070470000E9
:1006000080B543F60040C4F20200016841F4007175
:100610000160016841F480610160016841F480710A
:100620000160032000F060F80F2000F005F800F0F2
:100630002BF8002080BD0000B0B540F20402C2F2E9
:10064000000240F200011278C2F200014FF47A7306
:100650000968B3FBF2F20446B1FBF2F1084600F080
:10066000CDFA0F2C4FF001050CD858B94FF0FF30E0
:1006700021460022002500F027F840F20800C2F2CF
:10068000000004602846B0BD82B0002043F640015F
:100690000190C4F202014A6842F480424A604A680A
:1006A00002F480420192019A0090086840F0805064
:1006B0000860086800F080500090009802B0704711
:1006C00080B500F085FE80BD70B514460D46064627
:1006D00000F08EFE2946224600F014FD0146304609
:1006E00000F08EFE70BD000080B500F09BFE80BD66
:1006F0002DE9F041002800F08B8043F60808C4F291
:1007000002080446D8F8F8030D4600F007008842B6
:1007100007D288F8F853D8F8F80300F00700A84289
:1007200076D12068810717D5410705D5D8F8001084
:1007300041F4E051C8F80010010705D5D8F80010C1
:1007400041F46041C8F80010D8F80010A26821F008
:10075000F0011143C8F80010C0073FD1D8F8F803E2
:1007600000F00700A84207D988F8F853D8F8F80332
:1007700000F00700A8424BD12068410707D5D8F800
:100780000010E26821F4E0511143C8F8001000079E
:1007900008D5D8F80000216920F4604040EAC10083
:1007A000C8F8000000F054F8D8F8001041F2744284
:1007B000C1F30311C0F60002515C40F2000220FABE
:1007C00001F140F20800C2F200000068C2F200022B
:1007D0001160FFF731FF0020BDE8F0816068811EE5
:1007E000022907D258F8081C89015CBF0120BDE826
:1007F000F08110E0012807D158F8081C89035CBF7C
:100800000120BDE8F08106E058F8081C890702D4F1
:100810000120BDE8F081D8F8001021F00301084361
:10082000C8F80000FFF7D8FE064641F2883700BF3F
:10083000D8F80000616800F00C00B0EB810F8DD09B
:10084000FFF7CAFE801BB842F2D90320BDE8F08151
:1008500010B543F60404C4F20204606800F00C0012
:1008600008280AD0042819BF42F20040C0F2F40060
:1008700047F64000C0F27D1010BD20682168236853
:10088000490247F64001C0F27D1100F03F02C3F378
:1008900088105CBF42F20041C0F2F401A1FB0001EC
:1008A0000023FFF7E1FC21680222C1F3014102EBC2
:1008B0004101B0FBF1F010BD2DE9F04182B00028FC
:1008C00000F09F800446007843F60006C007C4F29B
:1008D000020641D0B06800F00C00042805D1306851
:1008E000800339D56068B8BB8BE0B06800F00C00BD
:1008F000082802D170684002F1D46568B5F5803FE0
:1009000006D03068B5F5A02F06D140F480203060C5
:10091000306840F4803005E020F48030306030688A
:1009200020F480203060FFF757FE002D054610D0E0
:100930003068800310D4FFF74FFE401B6428F7D9BE
:1009400022E100BFFFF748FE401B64284FF0030080
:1009500054D830688003F5D4207880071AD5B06861
:1009600010F00C0F09D0B06800F00C00082840F01F
:100970008C807068400200F188803068800702D562
:10098000E06801283DD13068216920F0F80040EA94
:10099000C10030602078000737D4207840074AD45F
:1009A000A56955B3B06800F00C00082840F0A0809D
:1009B000012D26D07068E16900F480028A4220D1BE
:1009C000216A00F03F028A421BD147F6C071626A79
:1009D0000140B1EB821F14D1A16A4FF6FF73C90326
:1009E000994300F44032A1F580318A4209D1E16A8D
:1009F00000F07060B0EB016F03D1002002B0BDE8E1
:100A0000F081012002B0BDE8F0816069002840F269
:100A10000000C4F247205AD00121C0F8801EFFF721
:100A2000DBFD0546706F8007B7D4FFF7D5FD401B8F
:100A30000228F7D9A8E0306C4FF00008C0000CD4B1
:100A4000CDF80480306C4FF0010840F080503064E5
:100A5000306C00F080500190019847F20007C4F21A
:100A600000073868C00525D4386840F480703860C5
:100A7000FFF7B2FD054600BF3868C0051AD4FFF77E
:100A8000ABFD401B0228F7D97EE0E068002851D07A
:100A90000020C4F2472001210160FFF79DFD0546BB
:100AA000306880073FF56FAFFFF796FD401B0228C7
:100AB000F6D969E0A568012D05D0306F052D4DD11F
:100AC00040F004003067306F40F001004CE000213E
:100AD000C0F8801EFFF780FD054600BF706F8007DD
:100AE0007FF55BAFFFF778FD401B0228F6D94BE09E
:100AF0000027C4F2472700203866FFF76DFD022D5E
:100B000005460BD13068800156D5FFF765FD401BC7
:100B100002284FF00300F5D970E700BF306880016C
:100B20007FF56BAFFFF758FD401B02284FF0030025
:100B3000F4D963E70020C4F2472000210160FFF7E9
:100B40004BFD0546306880077FF524AFFFF744FD75
:100B5000401B02284FF00300F4D94FE720F00100BA
:100B60003067306F20F004003067FFF735FD002D4F
:100B7000054641F2883713D0306F800713D4FFF752
:100B80002BFD401BB842F7D9032002B0BDE8F0812D
:100B9000FFF722FD401BB8424FF003003FF62EAF97
:100BA000306F8007F4D4B8F1000F3FF4F9AE306C29
:100BB00020F080503064F3E604F11C052FCD08438B
:100BC00040EA8210D9034FF6FF729143A1F58031BC
:100BD00040EA05600843706001203866FFF7FCFCBE
:100BE000044600BF306880013FF507AFFFF7F4FC13
:100BF000001B02284FF00300F4D9FFE680B500F097
:100C00009BFA80BD704700007047000010B590F857
:100C10003C20012A4FF0020252D0012380F83C30E0
:100C200080F83D200268D2F804E0D2F808C00C68D1
:100C30002EF07003234341F2FF74C4F20004A24279
:100C400053600DDC40F2FF73C4F200039A4215DCDE
:100C5000B2F1804F29D040F20043C4F2000322E0F9
:100C600040F2FF33C4F201039A4212DC41F6000362
:100C7000C4F200039A4218D0002312E040F60003A9
:100C8000C4F200039A4210D040F60043C4F20003BD
:100C900009E044F20003C4F201039A4205D040F295
:100CA0000043C4F201039A4204D149682CF0800346
:100CB000194391600121002280F83D1080F83C200A
:100CC000104610BD002804BF0120704710B504462F
:100CD00090F83D0028B9002084F83C00204600F040
:100CE0001FF8022084F83D002068211D00F0A0FAC2
:100CF000012084F8460084F83E0084F83F0084F820
:100D0000400084F8410084F8420084F8430084F8ED
:100D1000440084F8450084F83D00002010BD000028
:100D200080B582B00068B0F1804F1DD00021C4F2C0
:100D30000101884227D10020019043F64000C4F20F
:100D400002004168002241F0010141604068002139
:100D500000F00100019001981920FFF7B5FC19205F
:100D6000FFF7AEFC02B080BD0020009043F64000CB
:100D7000C4F20200016841F001010160006800F066
:100D800001000090009802B080BD000010B504463C
:100D900090F83C0001284FF0020008BF10BD01226E
:100DA00084F83C2084F83D0020684FF67773826811
:100DB0009A4382600A684F2A0FDC1F2A22DD202A0C
:100DC00023D0302A21D0402A4DD14B68CA68194619
:100DD00000F0D8FA206840213BE06F2A17DDB2F519
:100DE000005F20D0B2F5805F2AD0702A3BD1D1E9D4
:100DF000012CCB68614600F0B1FA2068816841F0AF
:100E000077011AE00AB1102A2DD1114621E0502AAB
:100E100018D0602A27D14B68CA68194600F0C4FA76
:100E20002068602115E0D1E9012CCB68614600F013
:100E300095FA2068816841F48041816000200BE0D0
:100E4000002009E04B68CA68194600F09BFA206848
:100E5000502100F08FFA0020012184F83D1000217C
:100E600084F83C1010BD0120F6E700007047000038
:100E7000B0B504460068C168026902EA0105A90725
:100E80001DD4680731D4280747D4E8065CD4E807A6
:100E900073D128067BD4680606D520686FF0400120
:100EA0000161204600F084F8A80658BFB0BD206854
:100EB0006FF0200101612046FFF7A6FEB0BD6FF084
:100EC00002010161012121778069800703D020465A
:100ED000FFF7CCFF05E0204600F064F8204600F064
:100EE00063F8002020776807CDD520686FF00401F3
:100EF000016102212177806910F4407F03D02046F0
:100F0000FFF7B4FF05E0204600F04CF8204600F063
:100F10004BF8002020772807B7D520686FF008012C
:100F2000016104212177C069800703D02046FFF7C3
:100F30009DFF05E0204600F035F8204600F034F82B
:100F400000202077E806A2D520686FF0100101612B
:100F500008212177C06910F4407F03D02046FFF7B5
:100F600085FF05E0204600F01DF8204600F01CF843
:100F700000202077E8073FF48CAF20686FF0010174
:100F80000161204600F012F828067FF584AF206842
:100F90006FF0800101612046FFF734FE68067FF59F
:100FA00083AF7AE770470000704700007047000089
:100FB00070470000FEE70000F0B587B0002643F65A
:100FC00030000696CDE90466CDE902660196C4F2CA
:100FD00002000168002441F0010101600068C4F2D0
:100FE000020400F001000190019820460421002233
:100FF0000427FFF7EBFA022002ADCDE902062046F6
:1010000029460496FFF714FA01200297CDE903065A
:10101000204629460596FFF70BFA07B0F0BD000001
:1010200080B586B040F2700000220021C2F20000BC
:10103000C4F201024FF6FF73CDE90411CDE90211AC
:10104000CDE90011C0E90021C0E90213C0E9041193
:101050008161FFF737FEC0B94FF48050029040F233
:101060007000C2F2000002A9FFF790FE68B90020EC
:10107000CDE9000040F27000C2F200006946FFF7BF
:10108000C5FD002804BF06B080BDFFF7CDF9000004
:1010900080B586B040F2B8000021C2F200004FF0E7
:1010A00080424FF0FF33CDE90411CDE90211CDE9C3
:1010B0000011C0E90021C0E9021301618161FFF75D
:1010C00001FEC0B94FF48050029040F2B800C2F265
:1010D000000002A9FFF75AFE68B90020CDE9000020
:1010E00040F2B800C2F200006946FFF78FFD002809
:1010F00004BF06B080BDFFF797F90000FEE70000CF
:10110000FEE7000000F0070080F00703042B28BF73
:1011100004234FF0FF3C03380CFA03F338BF0020E0
:10112000994381400CFA00F022EA0000084370471E
:101130007047000070470000B0B501380024B4EBE0
:10114000106F1CBF0120B0BD4EF21005CEF200059D
:1011500068604FF0FF300F2100F052F90720AC60BB
:1011600028602046B0BD000080B5FFF73BFA80BD87
:1011700070B592B006AC20463021FFF7EDF800259F
:1011800043F640000595CDE90355CDE9015500959D
:10119000C4F202000168022641F08051016000683B
:1011A00000F080500090009847F200000095C4F2D3
:1011B0000000016841F480410160006800F4804053
:1011C000009000980120099010200A9008200696AF
:1011D000CDE90C650E904020CDE90F06042011905A
:1011E0002046FFF769FB78B90F20CDE901064FF4DF
:1011F00080500395CDE9040501A80221FFF778FA94
:10120000002804BF12B070BDFFF70EF94EF68850EB
:10121000CEF20000016841F47001016070470000E7
:1012200080B540F27000C2F20000FFF721FE80BDE1
:1012300010B540F6FF3E0368C4F2000E40F2004CC9
:101240007045C4F2010C0FDCB0F1804F19D040F2B0
:101250000042C4F20002904213D040F60002C4F2F1
:10126000000290420DD010E040F60042C4F20002AD
:10127000904206D0604504D00022C4F201029042A0
:1012800003D14A6823F07003134341F6FF72C4F29E
:10129000000290420DDC70451FDCB0F1804F41D060
:1012A00040F20042C4F2000290423BD040F60002FD
:1012B00021E043F6FF72C4F20102904220DC42F2C8
:1012C0000002C4F2000290422CD00022C4F20102BB
:1012D000904227D0604525D028E040F60042C4F275
:1012E000000290421ED041F60002C4F20002904279
:1012F00018D041F60042C4F20002904212D015E02C
:1013000044F20002C4F2010290420BD044F6000203
:10131000C4F20102904205D044F20042C4F201023C
:10132000904203D1CA6823F44073134323F0800230
:10133000D1F800E04B698C681A43C46240F48063C2
:10134000C0F828E0634504BF09690163016841F002
:101350000401016001214161026010BDD0F808C0A4
:1013600011432CF47F4C41EA032141EA0C018160D6
:1013700070470000826822F07002114341F00701BB
:1013800081607047D0F820C0036A23F00103036234
:10139000836923F0F00343EA02122CF00A03194395
:1013A0008261016270470000D0F820C0036A23F018
:1013B00010030362836923F4704343EA02322CF082
:1013C000A00343EA0111826101627047FEE7000059
:1013D000002848BF704700F01F01012202FA01F106
:1013E0004EF200124009CEF2000242F8201070477F
:1013F0004EF60C50CEF200000068C0F30220704799
:101400004EF6145300F00F02CEF2000309011A4405
:1014100000F16043B0F1FF3FC8BF03F564421170B3
:10142000704700004EF60C51CEF200010A684FF6EC
:10143000FF031A4060F30A2242F0806040F0FD7022
:1014400008607047FFF7DCF8FFF792FEFFF7B4FD86
:10145000FFF7E6FDFFF71CFEFEE7F1EE100A4FF680
:10146000FF71C0F2C03120EA010040F04070E1EEAF
:10147000100A704700000000000000000102030491
:1014800006070809A814000800000020100000004A
:10149000C4010008B814000810000020F80600007D
:1014A000E0010008000000000024F400010000003A
:0814B000100000000000000024
:040000050800018965
:00000001FF
