:020000040800F2
:10000000F806002029020008E1180008B5110008D0
:10001000DD18000841040008051A0008000000006F
:10002000000000000000000000000000151900089A
:1000300045040008000000001119000849190008D3
:10004000430200084302000843020008430200087C
:10005000430200084302000843020008430200086C
:10006000430200084302000843020008430200085C
:10007000430200084302000843020008430200084C
:10008000430200084302000843020008430200083C
:10009000430200084302000843020008430200082C
:1000A000430200084302000843020008430200081C
:1000B000430200084302000843020008430200080C
:1000C00043020008430200084302000843020008FC
:1000D00043020008430200084302000843020008EC
:1000E00043020008430200084302000843020008DC
:1000F00043020008430200084302000843020008CC
:1001000043020008430200084302000843020008BB
:1001100043020008430200084302000843020008AB
:10012000430200084302000843020008430200089B
:10013000430200084302000843020008430200088B
:10014000430200084302000843020008430200087B
:10015000430200084302000843020008430200086B
:10016000430200084302000843020008430200085B
:100170004302000843020008430200080000000098
:10018000430200084302000800F002F800F03CF8C7
:100190000AA090E8000C82448344AAF10107DA45E2
:1001A00001D100F031F8AFF2090EBAE80F0013F0F8
:1001B000010F18BFFB1A43F001031847D42D0000AC
:1001C000F42D0000103A24BF78C878C1FAD852073D
:1001D00024BF30C830C144BF04680C6070470000C1
:1001E0000023002400250026103A28BF78C1FBD840
:1001F000520728BF30C148BF0B6070471FB502F0DF
:1002000056FE1FBD10B510BD00F0E4F81146FFF713
:10021000F5FF01F0EBFC00F002F903B4FFF7F2FF89
:1002200003BC00F005F90000094880470948004771
:10023000FEE7FEE7FEE7FEE7FEE7FEE7FEE7FEE796
:10024000FEE7FEE704480549054A064B70470000F3
:10025000F119000889010008F8000020F8060020C4
:10026000F8020020F802002053EA020C00F0698036
:100270002DE9F04B4FF00006002B1FBFB3FA83F5BA
:1002800003FA05F424FA05F65E4012BF1643B2FAEB
:1002900082F502FA05F4C5F120051EBF22FA05FC1D
:1002A00044EA0C04203556EA044C4FEA144418BFC3
:1002B000641C4FF000084FF00009904271EB030CF2
:1002C00039D3002919BFB1FA81F701FA07F6B0FA5C
:1002D00080F700FA07F6C7F120071EBF20FA07FCD7
:1002E00046EA0C062037B6FBF4FCA7EB0507103FE7
:1002F00007F01F0BCBF120062CFA06F60CFA0BFBCD
:1003000044BFB3460026202FA4BF5E464FF0000B2B
:100310005BEA060C08BF4FF0010B19EB0B0948EB29
:100320000608ABFB027C06FB02CC0BFB03CCC01B1C
:1003300071EB0C01C1E70B46024641464846BDE859
:10034000F08B13B5084318BF4FF0FF300146AFF3F1
:100350000080BDE81C4070474FF0000200B5134616
:1003600094469646203922BFA0E80C50A0E80C50D5
:10037000B1F12001BFF4F7AF090728BFA0E80C5086
:1003800048BF0CC05DF804EB890028BF40F8042B7F
:1003900008BF704748BF20F8022B11F0804F18BFEC
:1003A00000F8012B704770477047704710B500F098
:1003B00009F8006810BD10B5044600F003F80460A9
:1003C00010BD000000487047100000200048704732
:1003D000100000207546FFF7F9FFAE46050069469C
:1003E000534620F00700854618B020B5FFF72AFFD6
:1003F000BDE820404FF000064FF000074FF0000826
:100400004FF0000BAC46ACE8C009ACE8C009ACE862
:10041000C009ACE8C00921F007018D46704710B54E
:100420000446AFF300802046BDE81040FFF7F5BE5C
:1004300001491820ABBEFEE726000200704700000D
:10044000FEE700007047000072B600BFFEE7000044
:10045000B0B5044600F0DEF8054640F20400C2F2F2
:1004600000000078611C18BF044400BF00F0D2F8FF
:10047000401BA042FAD3B0BD2DE9F04F83B000F18C
:100480003E4202F1FF724FEAB22241F6004701926A
:10049000C4F2020708224FF0010E00254FF0000AB7
:1004A0004FF00008B84208BF072200920AE000BFE0
:1004B00008F101080AF1040AB8F1100F05F102056C
:1004C00000F0A4800C680EFA08FB14EA0B09EFD0C8
:1004D0004C6804F0030CACF1010EBEF1010F11D811
:1004E0000322876802FA05F6CA68B743AA403A436E
:1004F00082604268C4F3001722EA0B0207FA08F789
:100500003A434260BCF1030F1CD0C26803238E68DB
:1005100003FA05F7BA4306FA05F73A43BCF1020FAE
:10052000C2600FD16FF0030202EA580202440AF0DF
:100530001C060F23176A03FA06F40B69A743B3409E
:100540003B431362026803234F68AB409A4307F0B2
:100550000303AB401A4317F4403F4FF0010E026013
:10056000A6D0002243F644030292C4F202031A68A2
:1005700043F6004442F480421A601A68C4F201044F
:1005800002F480420292029A28F003024FF6084BCE
:100590002244CFF6FF7B52F80B300AF00C070F26EF
:1005A000BE4023EA060C019B009E072B38BF1E4667
:1005B00006FA07F747EA0C0342F80B30A2684B68CB
:1005C00042EA090743F60C4CDE0258BF22EA09074B
:1005D000A760C4F2010CDCF800209E0242EA090781
:1005E00058BF22EA0907CCF8007062689E0342EA0D
:1005F000090758BF22EA090767602268DB0342EA5D
:10060000090358BF22EA0903236051E703B0BDE89C
:10061000F08F000040F2F000C2F200000068704766
:1006200070B5B0B3044690F83D0028B9002084F8B6
:100630003C00204600F060FA242084F83D00206849
:10064000016821F001010160016841F4004101608D
:10065000016821F40041016000F0C0FB48F28041D4
:10066000C0F21E0140F60012666888424FF0000199
:10067000C0F23D0248F2A16C4FF0000338BF0121E7
:100680009042C0F2010C38BF0123664538BF0B46CB
:100690000BB1012070BD4DF68361C4F21B31A0FB8C
:1006A00001122168930C4D68664525F03F0545EA27
:1006B00092424A600A6A22F03F0C09D34FF49672C4
:1006C0005A4344F6D353C1F26203A2FB03239B09AE
:1006D0005A1C42EA0C020A6248F2A063CA69C0F2DC
:1006E00001039E424CF6FF7322EA030C0AD801383C
:1006F0007200B0FBF2F001306FF31F30042898BF96
:1007000004202BE0A368A0F1010E9BB119207043D7
:10071000BEFBF0F00422013062F31F30000512D05E
:100720009BB119207043BEFBF0F00422013062F34C
:100730001F3011E006EB4600BEFBF0F001306FF316
:100740001F300005ECD1012008E006EB4600BEFB9F
:10075000F0F001306FF31F3040F4004040EA0C002D
:10076000C8610868D4E9072320F0C000104318438B
:100770000860886848F2FF3204F10C0690434CCEC2
:1007800018431043A5698860C86820F0FF00304313
:100790002843C860086840F001000860002020215C
:1007A000206484F83D10206384F83E0070BD000092
:1007B0002DE9F04383B01F4616460D460446FFF769
:1007C00029FF94F83D1020290FD102218146C0F263
:1007D0001001204601221923CDF8009000F020FEE0
:1007E00018B994F83C00012803D1022003B0BDE8F9
:1007F000F0830121226884F83C101368DDE90B08BE
:100800000A99DB0703D1136843F0010313601368EF
:1008100023F400631360222284F83D20402284F8F0
:100820003E200022226461626085608D2946208519
:100830000020CFF6FF70E062204632463B46CDF8FE
:100840000080CDF8049000F0CFFC18B1012003B077
:10085000BDE8F083208D022806D0012810D000BB0F
:1008600000200290206812E02068016821F4806175
:100870000160016841F4006101600021029113E010
:100880002068016821F480610160002102914169C2
:100890000291816902910299016841F4007101603D
:1008A00007E000200290206841690291806902906F
:1008B0000298258D002D7DD00427C0F201070DE0A0
:1008C00009690170606A218D01306062481E2085CF
:1008D000608D01386085258D002D6BD02046032D5D
:1008E0000CD8012D29D141464A4600F03DFE002892
:1008F000ACD12068616A00690870E3E741464A4666
:1009000000F032FE0028A1D12068616A00690870F9
:10091000606A228D0130013A606222852168638D10
:10092000013B63854B695B07D5D592B2032AC7D1DA
:100930000A6822F480620A60C2E739460022434610
:10094000CDF8009000F06CFD022D1BD000287FF444
:100950007DAF2068616A0268434622F480620260CB
:10096000006900220870606A218D01306062481EB3
:100970002085608D3946013860852046CDF800908D
:1009800000F04EFD00287FF461AF2068616A0268C4
:1009900042F40072026000690870606A411C616282
:1009A000218D226801392185618D013961851169A7
:1009B000417087E7202084F83D00002084F83E0045
:1009C00084F83C0003B0BDE8F08300002DE9F0435B
:1009D00083B0994616460F460446FFF71BFE94F86F
:1009E0003D1020290ED102210546C0F210012046FB
:1009F00001221923009500F013FD18B994F83C006A
:100A0000012803D1022003B0BDE8F0830121226850
:100A100084F83C101368DDE90B080A99DB0703D161
:100A2000136843F001031360136823F40063136039
:100A3000212284F83D20402284F83E2000222264B6
:100A400061626085608D394620850020CFF6FF7099
:100A5000E062204632464B46CDF80080019500F01A
:100A600049FC30B3012003B0BDE8F0832046414685
:100A70002A4600F0B5FD28BB606A2168034613F8DA
:100A8000012B0A61228D6362571E2785638D3F0407
:100A9000A3F1010363854B6918BF13F0040308D069
:100AA000437802300B616062901E2085608D0138B2
:100AB0006085208D0028D9D1204641462A4600F085
:100AC00079FC40B1206C0428CCD12068016841F445
:100AD00000710160C6E72068016841F4007101609F
:100AE000202084F83D00002084F83E0084F83C007B
:100AF00003B0BDE8F0830000B0B586B000240594D3
:100B0000CDE9034445F200410068C4F20001884287
:100B10000294019401D006B0B0BD43F630050094B4
:100B2000C4F20205286840F002002860286800F03E
:100B3000020000900098C02001901220CDE902042C
:100B4000032004900420059001F5D83001A9FFF797
:100B500093FC0094286940F400102861286900F48F
:100B600000100090009806B0B0BD000040F20400F4
:100B700040F2F001C2F20000C2F2000100780A68FF
:100B8000104408607047000080B543F60040C4F28E
:100B90000200016841F400710160016841F4806164
:100BA0000160016841F480710160032000F05CF88D
:100BB0000F2000F005F800F02BF8002080BD0000A9
:100BC000B0B540F20402C2F2000240F20001127815
:100BD000C2F200014FF47A730968B3FBF2F20446E3
:100BE000B1FBF2F1084600F0E1FA0F2C4FF00105DD
:100BF0000CD858B94FF0FF3021460022002500F0F4
:100C000023F840F20800C2F2000004602846B0BD9C
:100C100082B0002043F640010190C4F202014A680C
:100C200042F480424A604A6802F480420192019A8A
:100C30000090086840F080500860086800F080501C
:100C40000090009802B0704770B514460D460646F5
:100C500000F0DAFE2946224600F044FE0146304606
:100C600000F0DAFE70BD000080B500F0E7FE80BD48
:100C70002DE9F041002800F08B8043F60808C4F20B
:100C800002080446D8F8F8030D4600F00700884231
:100C900007D288F8F853D8F8F80300F00700A84204
:100CA00076D12068810717D5410705D5D8F80010FF
:100CB00041F4E051C8F80010010705D5D8F800103C
:100CC00041F46041C8F80010D8F80010A26821F083
:100CD000F0011143C8F80010C0073FD1D8F8F8035D
:100CE00000F00700A84207D988F8F853D8F8F803AD
:100CF00000F00700A8424BD12068410707D5D8F87B
:100D00000010E26821F4E0511143C8F80010000718
:100D100008D5D8F80000216920F4604040EAC100FD
:100D2000C8F8000000F06CF8D8F8001042F67872AD
:100D3000C1F30311C0F60002515C40F2000220FA38
:100D400001F140F20800C2F200000068C2F20002A5
:100D50001160FFF735FF0020BDE8F0816068811E5B
:100D6000022907D258F8081C89015CBF0120BDE8A0
:100D7000F08110E0012807D158F8081C89035CBFF6
:100D80000120BDE8F08106E058F8081C890702D46C
:100D90000120BDE8F081D8F8001021F003010843DC
:100DA000C8F80000FFF736FC064641F2883700BF5E
:100DB000D8F80000616800F00C00B0EB810F8DD016
:100DC000FFF728FC801BB842F2D90320BDE8F08170
:100DD00040F20000C2F200000068704780B5FFF7E3
:100DE000F7FF43F60801C4F20201096842F688726F
:100DF000C1F38221C0F60002515CC84080BD0000F2
:100E000010B543F60404C4F20204606800F00C005C
:100E100008280AD0042819BF42F20040C0F2F400AA
:100E200047F64000C0F27D1010BD2068216823689D
:100E3000490247F64001C0F27D1100F03F02C3F3C2
:100E400088105CBF42F20041C0F2F401A1FB000136
:100E50000023FFF709FA21680222C1F3014102EBE6
:100E60004101B0FBF1F010BD2DE9F04182B0002846
:100E700000F09F800446007843F60006C007C4F2E5
:100E8000020641D0B06800F00C00042805D130689B
:100E9000800339D56068B8BB8BE0B06800F00C0007
:100EA000082802D170684002F1D46568B5F5803F2A
:100EB00006D03068B5F5A02F06D140F48020306010
:100EC000306840F4803005E020F4803030603068D5
:100ED00020F480203060FFF79DFB002D054610D0E8
:100EE0003068800310D4FFF795FB401B6428F7D9C6
:100EF00022E100BFFFF78EFB401B64284FF0030088
:100F000054D830688003F5D4207880071AD5B068AB
:100F100010F00C0F09D0B06800F00C00082840F069
:100F20008C807068400200F188803068800702D5AC
:100F3000E06801283DD13068216920F0F80040EADE
:100F4000C10030602078000737D4207840074AD4A9
:100F5000A56955B3B06800F00C00082840F0A080E7
:100F6000012D26D07068E16900F480028A4220D108
:100F7000216A00F03F028A421BD147F6C071626AC3
:100F80000140B1EB821F14D1A16A4FF6FF73C90370
:100F9000994300F44032A1F580318A4209D1E16AD7
:100FA00000F07060B0EB016F03D1002002B0BDE82B
:100FB000F081012002B0BDE8F0816069002840F2B4
:100FC0000000C4F247205AD00121C0F8801EFFF76C
:100FD00021FB0546706F8007B7D4FFF71BFB401B52
:100FE0000228F7D9A8E0306C4FF00008C0000CD4FC
:100FF000CDF80480306C4FF0010840F08050306430
:10100000306C00F080500190019847F20007C4F264
:1010100000073868C00525D4386840F4807038600F
:10102000FFF7F8FA054600BF3868C0051AD4FFF785
:10103000F1FA401B0228F7D97EE0E068002851D081
:101040000020C4F2472001210160FFF7E3FA0546C2
:10105000306880073FF56FAFFFF7DCFA401B0228CE
:10106000F6D969E0A568012D05D0306F052D4DD169
:1010700040F004003067306F40F001004CE0002188
:10108000C0F8801EFFF7C6FA054600BF706F8007E4
:101090007FF55BAFFFF7BEFA401B0228F6D94BE0A5
:1010A0000027C4F2472700203866FFF7B3FA022D65
:1010B00005460BD13068800156D5FFF7ABFA401BCF
:1010C00002284FF00300F5D970E700BF30688001B7
:1010D0007FF56BAFFFF79EFA401B02284FF003002D
:1010E000F4D963E70020C4F2472000210160FFF734
:1010F00091FA0546306880077FF524AFFFF78AFA3A
:10110000401B02284FF00300F4D94FE720F0010004
:101110003067306F20F004003067FFF77BFA002D56
:10112000054641F2883713D0306F800713D4FFF79C
:1011300071FA401BB842F7D9032002B0BDE8F08134
:10114000FFF768FA401BB8424FF003003FF62EAF9E
:10115000306F8007F4D4B8F1000F3FF4F9AE306C73
:1011600020F080503064F3E604F11C052FCD0843D5
:1011700040EA8210D9034FF6FF729143A1F5803106
:1011800040EA05600843706001203866FFF742FAC4
:10119000044600BF306880013FF507AFFFF73AFA19
:1011A000001B02284FF00300F4D9FFE680B500F0E1
:1011B000B3FB80BDFEE700000268516949054FF0AE
:1011C00000010FD56FF4806353612022016380F822
:1011D0003D2080F83E10026C42F00402026480F868
:1011E0003C100121084670472DE9F04782B00446C3
:1011F00000680E460168DDF828A041F480610160B6
:101200000168DDF82C9041F480711D46174601609D
:1012100020464FF0011100225346CDF8009000F017
:10122000FFF850B120680068C00544BF4FF400705B
:101230002064032002B0BDE8F08740F20208206875
:10124000C0F2010806F0FE060661204641465246FD
:101250004B4600F035F948BB0020019020684A4613
:10126000416901918069514601900198204600F042
:10127000B7F998B9012D08D02068390A01612046D4
:1012800051464A4600F0ACF940B92068F9B2016114
:10129000204651464A4600F0A3F958B1206C042874
:1012A00004D12068016841F400710160012002B09E
:1012B000BDE8F087206800220168534641F4807140
:1012C000016020464FF00111CDF8009000F0A8F821
:1012D0000028A7D1206846F001010161204641465F
:1012E00052464B4600F0ECF8002818BF012002B02F
:1012F000BDE8F0872DE9F04383B0044600680D4651
:1013000001680A9F0B9E41F48071994690460160E6
:1013100020464FF0011100223B46009600F080F875
:1013200050B120680068C00544BF4FF400702064CD
:10133000032003B0BDE8F083206805F0FE010161E1
:101340000221C0F2010120463A46334600F0B8F8C7
:1013500018B1012003B0BDE8F0830020029020689E
:1013600032464169029180693946029002982046CE
:1013700000F036F940B1206C0428EAD120680168F9
:1013800041F400710160E4E7B9F1010F0AD020686F
:101390004FEA1821016120463946324600F020F913
:1013A0000028E8D120685FFA88F10161002003B0CD
:1013B000BDE8F083F0B581B004460068406940079D
:1013C0001AD415460E464F1C08E000BF206840693D
:1013D000400714D52068406940070DD42046FFF728
:1013E000EBFEC8B9002FF5D0FFF714F9002EEDD0B1
:1013F000401BB042EED9E9E7002001B0F0BD00206B
:101400002021206384F83D1084F83E00216C41F0D7
:101410002001216484F83C00012001B0F0BD0000EF
:101420002DE9F047DDF8208099461646044601F480
:101430007F078DB203F1010A11E000BF2068182177
:10144000B7F5803F08BF142140582A4608BF2A46F6
:101450001040801AB0FA80F04009B04220D02068D5
:101460001821B7F5803F08BF142140582A4608BF0D
:101470002A461040801AB0FA80F04009B0420CD1E0
:10148000BAF1000FEBD0FFF7C5F8B9F1000FD5D0D6
:10149000A0EB08004845E2D9D0E70020BDE8F0877E
:1014A00000202021206384F83D1084F83E00216C48
:1014B00041F02001216484F83C000120BDE8F08760
:1014C0002DE9F04381B098469146044601F47F0728
:1014D0008DB2561C0DE000BF20681821B7F5803F83
:1014E00008BF142140582A4608BF2A46104090429F
:1014F00028D120681821B7F5803F08BF1421415832
:101500002A4608BF2A46114091420ED0416949053A
:101510000FD4002EEDD0FFF77DF8B9F1000FDBD02E
:10152000A0EB08004845E4D9D6E7002001B0BDE8AB
:10153000F083016841F4007101606FF480614161E2
:10154000042000E0202000212022216384F83D2097
:1015500084F83E10226C1043206484F83C10012073
:1015600001B0BDE8F083000070B504460068154680
:1015700050F8143F5A0615D40E4608E0206840691A
:1015800040061DD5206850F8141F49060AD401688A
:10159000C90609D4FFF73EF8002EEFD0401BB04239
:1015A000F0D9EBE7002070BD6FF010010160002062
:1015B0002021206384F83D1084F83E00216C09E06E
:1015C00000202021206384F83D1084F83E00216C27
:1015D00041F02001216484F83C00012070BD00002E
:1015E000F0B581B004460068406900061AD415467B
:1015F0000E464F1C08E000BF20684069000614D565
:101600002068406900060DD42046FFF7D5FDC8B913
:10161000002FF5D0FEF7FEFF002EEDD0401BB042AC
:10162000EED9E9E7002001B0F0BD002020212063C1
:1016300084F83D1084F83E00216C41F020012164C3
:1016400084F83C00012001B0F0BD00002DE9F0411C
:1016500084B001260DF10F00CDE9000640F29400A0
:101660004FF47A75C2F20000D02175220123029551
:10167000FFF79EF89DF80F00682834D140F29404DB
:10168000C2F200044FF000080DF10E072046D021F1
:101690006B2201238DF80E80CDE900760295FFF7CD
:1016A00095F907208DF80E002046D021192201233C
:1016B000CDE900760295FFF789F92046D0211B225B
:1016C00001238DF80E80CDE900760295FFF77EF9B3
:1016D0002046D0211C2201238DF80E80CDE9007612
:1016E0000295FFF773F904B0BDE8F08180B586B0CC
:1016F00006200DF11201CDE9001040F294004FF4E4
:101700007A7CC2F20000D0213B220123CDF808C030
:10171000FFF74EF8BDF8120040F28802C1BA00BAD5
:10172000BDF81430000CC2F20002108093FAB3FE30
:101730001ABA40F28A0CBDF81630120CC2F2000C34
:10174000ACF80020DABA1BBA40F28C001B0CC2F2D3
:10175000000000EE101A9FED131A0380B8EEC00AC5
:1017600040F2700020EE010AC2F2000080ED000A93
:1017700000EE10EAB8EEC00A40F2740020EE010A52
:10178000C2F2000080ED000A00EE102AB8EEC00A96
:1017900040F2780020EE010AC2F2000080ED000A5B
:1017A00006B080BD0000803880B586B006200DF1FF
:1017B0001201CDE9001040F294004FF47A7CC2F29D
:1017C0000000D02143220123CDF808C0FEF7F0FF2E
:1017D000BDF8120040F28E0290FAB0FE00BABDF8D9
:1017E0001430000CC2F20002108018BA40F2900CC3
:1017F000BDF81620000CC2F2000CACF8000010BAC4
:1018000040F29201000CC2F2000100EE10EA9FEDDE
:10181000141A0880B8EEC00A80EE010A40F27C017A
:10182000D8BAC2F2000181ED000A00EE100AB8EE4B
:10183000C00A80EE010A40F28001D0BAC2F2000173
:1018400081ED000A00EE100AB8EEC00A80EE010A2F
:1018500040F28400C2F2000080ED000A06B080BDB4
:101860000000034382B0002043F630010190C4F22F
:1018700002010A6842F001020A600A6802F00102ED
:101880000192019A0090086840F002000860086820
:1018900000F002000090009802B0704780B540F25E
:1018A000940045F20041C2F20000C4F2000148F287
:1018B000A06200234FF4804CC0F2010280E80E00C9
:1018C000C0E9033CC0E90533C0E90733FEF7A8FED1
:1018D000002808BF80BDFEF7B7FD0000FEE700004E
:1018E000FEE7000000F0070080F00703042B28BF8C
:1018F00004234FF0FF3C03380CFA03F338BF0020F9
:10190000994381400CFA00F022EA00000843704736
:101910007047000070470000B0B501380024B4EBF8
:10192000106F1CBF0120B0BD4EF21005CEF20005B5
:1019300068604FF0FF300F2100F06EF80720AC60B8
:1019400028602046B0BD000080B5FFF70FF980BDCC
:1019500070B592B006AC20463021FEF7FDFC0025A4
:1019600043F640000595CDE90355CDE901550095B5
:10197000C4F202000168022641F080510160006853
:1019800000F080500090009847F200000095C4F2EB
:101990000000016841F480410160006800F480406B
:1019A000009000980120099010200A9008200696C7
:1019B000CDE90C650E904020CDE90F060420119072
:1019C0002046FFF751FA80B90F20CDE90106A0208B
:1019D00003904FF48050CDE9040501A80021FFF7E2
:1019E00047F9002804BF12B070BDFEF72DFD0000BE
:1019F0004EF68850CEF20000016841F4700101609B
:101A000070470000FEE700004EF60C50CEF20000DA
:101A10000068C0F3022070474EF6145300F00F0226
:101A2000CEF2000309011A4400F16043B0F1FF3F18
:101A3000C8BF03F564421170704700004EF60C51A8
:101A4000CEF200010A684FF6FF031A4060F30A2243
:101A500042F0806040F0FD700860704700000000B8
:101A60002DE9F04F81B02DED0E8B40F2E80BB0EE7A
:101A700040AAC2F2000B9FED5C0AB0EE419A9BEDCA
:101A8000001A40F2EC0021EE803AC2F2000033EE80
:101A900001DA90ED001A22EE000A10EE900AB0EE84
:101AA000608A30EE01CA01F091F92AEE0A0A29EEA5
:101AB00009EA30EE0E0A41EC1B0B10EE100A01F0A1
:101AC00085F941EC100B00F047FBB0EE401AB0EE88
:101AD0004B0AF0EE601AF0EE6B0A00F03DFA51ECA2
:101AE000100B9FED3B0B54EC106B3246234600F07D
:101AF000ADFE00F031FC05461AEE100A01F066F961
:101B000028EE080A30EE0E0A41EC190B10EE100A0E
:101B100001F05CF941EC100B00F01EFBB0EE401A36
:101B2000B0EE490AF0EE601AF0EE690A00F014FA1D
:101B300051EC100B3246234600F088FE00F00CFCFE
:101B400080461DEE100A01F041F99FED230B59EC80
:101B500010AB52464B4600F079FE064628460F462B
:101B600001F034F99FED1E0B55EC104B22462B462D
:101B700000F06CFE02460B463046394600F01EFC73
:101B800000F0EAFBCBF800001CEE100A01F01EF991
:101B900052464B4600F05AFE064640460F4601F0BC
:101BA00015F922462B4600F051FE02460B46304600
:101BB000394600F003FC00F0CFFB40F2EC01C2F22A
:101BC00000010860BDEC0E8B01B0BDE8F08F00BFD6
:101BD000AEB6627FD9A54C405C8FC2F5285CEF3F62
:101BE0007B14AE47E17A943F0AD7233CFEF7CCFF43
:101BF000FFF7AEFEFFF736FEFFF750FEFFF726FDBC
:101C000040F2700840F2740540F2780640F27C071A
:101C100040F28004C2F20008C2F20005C2F20006DF
:101C2000C2F20007C2F20004FFF7BEFDFFF75EFD3F
:101C300098ED000AD5ED000A96ED001AD7ED001ACE
:101C400094ED002AFFF70CFF6420FEF701FCEBE7A0
:101C500003B401984100009850EAC12018BF042045
:101C60004A0D18BF40F0010040F2FF72B2EB515F25
:101C700008BF40F00200012808BF052002B07047ED
:101C800070B59B482DED020B2DED068B079D25F0C1
:101C90000044A04218DC9748844202DC0AD106982E
:101CA00040B19DED060BBDEC068B02B0BDE8704067
:101CB00000F00BBB002DCCBF9FED8F0B9FED900B69
:101CC000BDEC068B02B070BD8F48A04215DD8F4879
:101CD000A042D8BF4FF0FF3458DD9DED060B51EC0C
:101CE000100BFFF7B5FF042808BF00F005FB9DEDC2
:101CF000060BBDEC068B02B070BD9DED060B51ECE2
:101D0000100B00F011FBCDE9060181489FED828B9D
:101D1000A0423CDD8248A0421FDD00249FED82AB43
:101D20009DED060B53EC1A2B51EC100B00F046FB0B
:101D30009DED060B41EC190B53EC1A2B51EC100BDB
:101D400000F084FD53EC182B00F056FF53EC192BD8
:101D500000F0E8FBCDE9060149E09DED060B01240A
:101D600053EC182B51EC100B00F028FB9DED060BEB
:101D700041EC190B53EC182B51EC100B00F03CFF0D
:101D800053EC192B00F0CEFBCDE906012FE068489B
:101D9000A0421FDD02249FED689B9DED060B53ECD6
:101DA000192B51EC100B00F051FD53EC182B00F0E7
:101DB00005FB9DED060B41EC180B53EC192B51EC78
:101DC000100B00F019FF53EC182B00F0ABFBCDE922
:101DD00006010CE09DED060B032453EC102B9FED48
:101DE000580B51EC100B00F09DFBCDE906019DED69
:101DF000060B53EC102B51EC100B00F027FD41ECBF
:101E0000180B53EC182B00F021FD41EC190B4E4838
:101E10000621B0EE490AF0EE690A784400F0D9F9DB
:101E200053EC182B51EC100B00F010FD41EC180B8B
:101E30004648B0EE490AF0EE690A0521784400F000
:101E4000C8F953EC192B51EC100B00F0FFFC41ECDE
:101E5000100B51EC180B53EC102B002C0EDA00F089
:101E6000ADFA9DED061B53EC112B00F0EFFC9DED40
:101E7000061B53EC112B00F0E7FD35E000F09EFA55
:101E80009DED061B53EC112B00F0E0FC41EC100B18
:101E90002F48784400EBC40090ED001B51EC100B70
:101EA00053EC112B00F0A8FE9DED061B53EC112BFB
:101EB00000F0A2FE41EC100B2648784400EBC40071
:101EC00090ED001B51EC100B53EC112B00F0BCFDFE
:101ED00041EC100B002DA2BFBDEC068B02B070BD13
:101EE00051EC100B00F02CFA41EC100B01E7000054
:101EF000000010440000F07F182D4454FB21F93FEE
:101F0000182D4454FB21F9BF0000DC3F0000203EA7
:101F10000000F33F00000000000000000000F03F60
:101F20000000E63F0000000000000000000000404C
:101F30000080034000000000000000000000F83FA7
:101F4000000000000000F0BF22110000D8100000C7
:101F5000621000001A10000070B56F4E2DED040BDA
:101F60002DED048B82B0DDF824C0DDE907235C424F
:101F70002CF000411C4341EAD474069D22F000403D
:101F8000B44205D86C422C4340EAD474B4420BD915
:101F90009DED081B9DED060B02B0BDEC048B04B05B
:101FA000BDE8704000F09BB9ACF14054A4F17F64EF
:101FB0001C430BD0022404EAAC7444EAD2740543F7
:101FC0009FED578B9FED582B07D015E09DED060B2D
:101FD00051EC100B00F0A0F942E0002C11BF012CD5
:101FE0009DED060B02B0BDEC048B04BF04B070BDC8
:101FF000022C38D0032C3BD00B439FED4D1B9FEDA3
:102000004E0B0AD0B14218D1B04209D121F0804123
:1020100020F08040099107900FE0002A15DA10E0C7
:10202000474B7B44002C08BF93ED000B0DD0012CD7
:1020300010D0022C17D0032C1AD0B0421DD1002A88
:1020400003DAB0EE410AF0EE610A02B0BDEC048B97
:1020500004B070BD93ED000B51EC100B00F070F963
:1020600041EC100BF1E7B0EE480AF0EE680AECE73D
:10207000B0EE420AF0EE620AE7E7401A00159FED63
:10208000329B3C28C8BF8DED000B17DCBCF1000F64
:10209000BCBF10F13C0F8DED009B0FDB9DED080BDD
:1020A00053EC102B9DED060B51EC100B00F03AFA9F
:1020B00000F03AF900F030F9CDE90001B4B1012C9B
:1020C00010D0022C9FED220B53EC102B9DED000B3A
:1020D00051EC100B19D000F08FFD53EC182B00F0D1
:1020E0008BFDBDE7019880F0004001909DED000B55
:1020F00053EC192B51EC100B00F06CFB04BF0220C9
:10210000FEF759F99DED000B9FE700F075FD53ECCC
:10211000182B00F099FCA3E70000F07F00000000FE
:10212000182D4454FB210940182D4454FB2109C0AB
:10213000182D4454FB21F9BF182D4454FB21F93FBD
:102140004A0F000000000000000000000000000036
:10215000075C143326A6A13C00B52DED048BB0EE30
:10216000409AF0EE609A83B051EC190B00F078FCC5
:1021700041EC180B18EE100A18EE901A8DED008B3A
:10218000002818BF0120084320F00040C0F17F6004
:1021900000F1E040C00F14D019EE101A19EE900AA9
:1021A0008DED009B002918BF0121084320F000405D
:1021B000C0F17F6000F1E040C00F04BF0120FEF7D6
:1021C000FAF8B0EE480A03B0F0EE680ABDEC048BF2
:1021D00000BD70B504462DED028B4D1E00EBC50011
:1021E000B0EE408AF0EE608A90ED000B35F006000C
:1021F00017D053EC182B51EC100B00F027FB41ECDF
:10220000100B6D1E04EBC50090ED001B51EC100B84
:1022100053EC112B00F0D2F841EC100B35F0060016
:10222000E7D1022D36D0042D1CD0062D1CBFBDECED
:10223000028B70BD53EC182B51EC100B00F006FB19
:1022400094ED0A1B53EC112B00F0B8F853EC182B4B
:1022500000F0FCFA94ED081B53EC112B00F0AEF8E3
:1022600041EC100B53EC182B51EC100B00F0EEFA74
:1022700094ED061B53EC112B00F0A0F853EC182B37
:1022800000F0E4FA94ED040B53EC102B00F096F8F8
:1022900041EC100B53EC182B51EC100B00F0D6FA5C
:1022A00094ED021B53EC112B00F088F853EC182B23
:1022B00000F0CCFA94ED001B53EC112B00F07EF8EB
:1022C000BDEC028B41EC100B70BD10B553EC102B24
:1022D00051EC100B00F072F841EC100B10BD10B572
:1022E00053EC112B51EC100B00F068F841EC100B83
:1022F00010BD0000000000009FED050B10B553EC71
:10230000102B51EC100B00F0A1FA41EC100B10BD9A
:10231000000000000000001010B541EC100BFFF7AA
:10232000AFFC51EC100B10BD82B0CDE9000121F0E3
:10233000004001909DED000B02B051EC100B704776
:1023400081F00041704780F00040704721F000416B
:10235000704720F00040704721F0004201F0004338
:10236000A2F16052B2F5801F28BFD2F17F6C0BD969
:102370005FEA001C43EAC20242EB507018BF70478C
:1023800028BF20F001007047B2F5801FBCBF18467F
:1023900070474FEA410C1CF5001F02D2084600F0BE
:1023A00093BD70B500F0FCFA00000089FFF7F6BF9E
:1023B0004FF00040A0F580007047000010B591EA92
:1023C000030F48BF83F0004300F11E84841A71EBB1
:1023D000030C05D2121943EB0C03001B61EB0C013B
:1023E0004FEA1154A4EB135CDFF81CE11EEA430F23
:1023F00018BF9EEA445F73D021EA045123EA0E031A
:1024000043F48013DCF1200E32D322FA0CFE10EBE1
:102410000E0023FA0CFE41EB0E01CCF1200E03FA64
:102420000EFE10EB0E00CCF1200E51F10001B1F5C3
:10243000801F32D201EB045112FA0EF2BDE81040B7
:1024400058BF7047401C38BF5FEA420218BF704750
:10245000002814BF20F0010041F100014FEA4103C0
:1024600013F5001F38BF7047A1F1C04100F0E6BA74
:10247000012A43EB0302ACF1200CDCF11F0E32BF4A
:102480004FF0000E23FA0CF310EB030041EB045164
:10249000B4EB115FD0D0A1EB045101F580114908D4
:1024A00001EB04515FEA30000ED350F1000038BF59
:1024B00012FA0EFE08D1BDE81040C9E7401C38BF33
:1024C0005FEA4202CAD1C3E7BDE810404FEA4103C8
:1024D00013F5001F38BF7047A1F1C04100F0AEBA3C
:1024E0009EEA445F08D011EA5E0FBDE8104004BFC9
:1024F00001F0004100207047BDE8104070B500F0C9
:102500004FFA00BF64FBBE3E0000E0FF491058BF19
:10251000C1F140415B1058BFC3F140438B42EFF320
:10252000008070472DE9C04130B4DFF8A0C23CEA1A
:10253000111418BF3CEA131400F0EC801CEA1114CB
:1025400081EA030544EAD57418BF1CEA131500F0AC
:10255000C780A4EB050404F17F7404F500344FF048
:10256000004545EAC12145EAC32341EA505143EA07
:1025700052534FEAC0204FEAC222994208BF90420C
:1025800000F09C804FEA13650FF24016765D4FEA2B
:10259000134506FB05F7C7F1807706FB07F74FEAFF
:1025A000D737A7FB03687642A7FB06CEC8F580386D
:1025B00038BFA8F1010807FB08E6A6FB028C4FF024
:1025C000000EE6FB03CEDCF1000CCEF1004E38BF6E
:1025D000AEF1010EA6FB0C584FF00007E6FB0E878C
:1025E000A1FB08C6A0FB07CE16EB0E064FF00005B8
:1025F00045F10005E1FB076515F1E04E7EBFA4F54E
:1026000080345FEA46066D4116F1800745F100050A
:102610004FEA172747EA05674FEA15254FEA06668E
:10262000A6F1DE46B6F1805F1FD9384605EBC471CE
:1026300024F0010C01EB0C11BCF1FE6F02D8F0BCD0
:10264000BDE8008124425CBF01F5801E9EEAC47F84
:1026500002D4F0BCBDE80081244238D4A1F1C041CD
:10266000F0BCBDE8004100F0E9B94FEAD02040EAF3
:1026700041504FEAD1214FEAD22242EA43524FEA77
:10268000D323A7FB028607FB036605FB02661EEA4F
:102690000E0F58BFA6EB0056B6EB00564FEA520E8F
:1026A0004EEAC37E18EB0E0E56EB530EBDD518EB5B
:1026B00002085E417F1C55F10005B6E74FF4801516
:1026C0004FF000074FF000064FF00008ADE701F1B2
:1026D000C04101F000414FF00000F0BCBDE80081B6
:1026E0000CEA131511EA0C1F00D00CE013EA0C1FC2
:1026F00000F025804FF0000081EA030101F0004165
:10270000F0BCBDE80081F0BCBDE8004181EA0301F6
:1027100000F094B9F0BCBDE8004170B500F040F99C
:10272000097EFC3E00F007B84FF0000081EA03018B
:1027300001F00041704781EA030100F07FB9F0BC6D
:10274000BDE8004122494FF000007047FFFDFBF952
:10275000F7F5F4F2F0EEEDEBE9E8E6E4E3E1E0DED4
:10276000DDDBDAD8D7D5D4D3D1D0CFCDCCCBCAC846
:10277000C7C6C5C4C2C1C0BFBEBDBCBBBAB9B8B76D
:10278000B6B5B4B3B2B1B0AFAEADACABAAA9A8A860
:10279000A7A6A5A4A3A3A2A1A09F9F9E9D9C9C9B2E
:1027A0009A999998979796959594939392919190D9
:1027B0008F8F8E8E8D8C8C8B8B8A8989888887876A
:1027C0008685858484838382828181800000FF07DF
:1027D0000000F87F51EA030C17D41CF5801F58BF86
:1027E000BCF5801F00F10680994218BF704708BFF2
:1027F0009042704707D711F5801F58BF13F5801F0F
:1028000019D499427047894270471CF5801F08D53A
:10281000BCF5801FF7D58B4218BF704708BF8242B6
:1028200070474FF4001C1CEB410F38BF1CEB430FEB
:1028300001D28B42704770B500F0B2F89224490083
:102840004FF000514FF08053FFF760BE70B5DFF8D6
:1028500048C11CEA111E1EBF1CEA13159EEA0C0F8C
:1028600095EA0C0F00F06F8081EA03044EEAD47EF3
:10287000AE4421EA4C1123EA4C1341F4801143F495
:102880008013AEF17F7EA1FB024CA0FB03653619DD
:1028900055EB0C05A1FB034C4CF10003A0FB021C03
:1028A00016EB0C06654153F10003094218BF46F0D0
:1028B000010613F4007F0BD14FEA03314FEA0530D4
:1028C00041EA155140EA165034036FF003020AE062
:1028D0004FEAC3214FEAC52041EA555140EA56501C
:1028E000F4026FF0020202EB2E4201EB025585EA80
:1028F000CE710AD05FEA440C18BF24F0004450F1B6
:10290000000041F1000120EAD47040F2FE7C6245F3
:1029100000D270BDA84214BF4FF080444FF0404435
:10292000002E08BF0024BEF1806FA8BFA1F1C041F6
:10293000BDE8704080F2828001F1C04101F00041A9
:102940004FF0000070470CEA13159EEA0C0F18BFF9
:1029500095EA0C0F06D081EA030E4FF000000EF04E
:10296000004170BD00F01CF88900013E00F007B87E
:1029700000F009B84FEA430C5FEA5C5C08D081EADA
:10298000030100F05BB84FEA410C5FEA5C5CF6D1F2
:1029900002494FF0000070470000FF070000F87F79
:1029A0000EF1020E2EF0030E5EF8046B364205D4D3
:1029B000012A43EB030515F5001F12D8012841EB4E
:1029C000010C1CF5001F0CD80ED14FEAD17C0CEB8A
:1029D0004C0C0CF1020C15F5001F08BF4CEBD37C1E
:1029E00004E04FF0080C01E04FEAD37C0CEB4C05FF
:1029F00026FA05F606F00706B6F1040C06D20EEB31
:102A0000860CBDE870404CF0010C6047DFE80CF02C
:102A1000090B02024FF00041A1F500214FF0000028
:102A200070BD19461046012851EB010418BFD4F5BA
:102A3000001484BF002001F0004170BD0808A0F51B
:102A400000114FEA3101704710B591EA030F81F090
:102A500000413FF5BBAC83F0004300F0D5B8000067
:102A60002DE9F04101F5801CBCF5001FC0F2A980E2
:102A70004FEA115C21EA0C5141F480110CF1FD0C7C
:102A80005FEA5C0C0CF5C07C01D34000494189022F
:102A900041EA905187022EA48E0EA45D0A0C04FB1D
:102AA00004F602FB06F6C6F14046A4FB0662F60DEC
:102AB00046EA422606FB06F4A4FB01235242C3F178
:102AC000404338BF5B1EA6FB02420024E6FB032402
:102AD000D20B42EA4446A6FB0623A1FB02E2A3FB7B
:102AE00007E4E3FB61426442C2F1404E38BFAEF1FD
:102AF000010EA6FB04234FF00002E6FB0E32A2FB00
:102B000003463400E2FB6264A1FB06E6A4FB07E88F
:102B1000E4FB61687642C8F1405838BFA8F101086B
:102B2000A2FB06E4A3FB08E5E2FB6854A1FB05E673
:102B3000A7FB04E8E1FB648618F1200556F10006C6
:102B4000A80940EA8660B109A8F11B0808F03F080F
:102B5000B8F10A0F1CD901EB0C51BDE8F08100BFA0
:102B6000FCF5EEE8E2DDD8D3CFCBC7C3C0BDB9B624
:102B7000B4B1AEACA9A7A5A3A19F9D9B9A98969529
:102B80009392908F8D8C8B898887868584838281B0
:102B9000A0FB006800FB01F208EB4208B8EB8728B5
:102BA00007D5341858EB0104D5D5401C51F100016C
:102BB000D1E7341A78EB0104CDD4401E71F1000145
:102BC000C9E75FEA4C0C5FEA9C5C0DD105D301F0CC
:102BD00000414FF00000BDE8F081BDE8F04170B564
:102BE000FFF7DEFE6DDBFFBEBDE8F04101494FF0AF
:102BF000000070470000F87F10B591EA030F48BF4E
:102C000083F000433FF5E2AB841A71EB030C07D26B
:102C10008CF0004C121943EB0C03001B61EB0C0110
:102C20004FEA1154A4EB135CDFF89CE11EEA430F5A
:102C300018BF9EEA445F00F0B08021EA045123EA05
:102C40006E035242C3EB6E0338BF5B1EDCF1200EF5
:102C500025D322FA0CFE10EB0E0043FA0CFE41EBDA
:102C60000E01CCF1200E03FA0EFE10EB0E00CCF19B
:102C7000200E51F1000129D401EB045112FA0EF299
:102C8000BDE8104058BF7047401C1CBFB2F1004F58
:102C9000704700280CBF491C20F00100704712EB60
:102CA000020E43EB030218BF4FF0010E4EEA420240
:102CB000ACF1200CDCF11E0E54D943FA0CFE10EBE3
:102CC0000E00CCF11E0E51F1FF31D5D50EF1010EE3
:102CD00012FA0EFE404141EB010101EB445C5FEA58
:102CE0005C5C10D901EB045110EBDE7038BFBEF113
:102CF000004FBDE8104018BF704700280CBF491CAA
:102D000020F00100704730D24FEAD42C24F4006444
:102D100011F500111BD0B1FA81F20B3AA41AA41ECE
:102D2000D2F12003914030FA03F31943904001EBB4
:102D3000CC7101EB0451002CBDE81040A8BF7047D6
:102D400001F1C04101F000414FF000007047B0FABE
:102D500080F310FA03F100D110BDE41A173C4805C6
:102D6000C90AE4E701EB045110BD49104FEA3000F5
:102D700001EB0451BDE8104002E04FF00001704744
:102D80004A0008BF0042F8D0B2F5001F28BF7047C4
:102D900001F000414FF0000070479EEA445F07D009
:102DA00011EA5E0FBDE8104004BF0021002070470B
:102DB000BDE8104070B5FFF7F3FD00BF40DFF63E01
:102DC000104683F0004170470000E0FF43004FEAE7
:102DD000D30C4FEA3C0C43401FBF40070CF160513D
:102DE00013F0FE4F70471CF0006F03D10CF0004150
:102DF000002070470CF0004343EA507040EACC00DA
:102E000010B500F00EF800BF000000924FEA00017C
:102E1000FFF714BE4FF00041A1F500214FF0000074
:102E200070470EF1020E2EF0030E5EF8044B2442A2
:102E300004D44FEA4102B2F17F4F11D84FEA400368
:102E4000B3F17F4F0CD80ED14FEAD07C0CEB4C0C79
:102E50000CF1020CB2F17F4F08BF4CEBD17C04E0C7
:102E60004FF0080C01E04FEAD17C0CEB4C0324FA44
:102E700003F404F00704B4F1040C06D20EEB840C46
:102E8000BDE810404CF0010C6047DFE80CF007088B
:102E900002024FF00040A0F5800010BD084642003D
:102EA00018BFD2F1807288BF00F0004010BDF1EE73
:102EB000100A4FF6FF71C0F2C03120EA010040F065
:102EC0004070E1EE100A7047FF2141EAD050C00582
:102ED00070470000000000004FBB610567ACDD3F9C
:102EE000182D4454FB21E93F9BF681D20B73EF3F31
:102EF000182D4454FB21F93FE2652F227F2B7A3CA9
:102F0000075C143326A6813CBDCBF07A8807703C61
:102F1000075C143326A6913CC4EB98999999C9BFD4
:102F2000711623FEC671BCBF6D9A74AFF2B0B3BF09
:102F30009AFDDE522DDEADBF2F6C6A2C44B4A2BFC9
:102F40000D5555555555D53FFF8300922449C23F35
:102F50006E204CC5CD45B73F513DD0A0660DB13F69
:102F6000EB0D76244B7BA93F11DA22E33AAD903F7B
:102F70000000000000000000000000000000000051
:102F8000010203040607080900000000010203040F
:102F9000B02F00080000002010000000C40100084D
:102FA000C02F000810000020E8060000E001000823
:102FB0000024F400010000001000000000000000E8
:040000050800018965
:00000001FF
