:020000040800F2
:10000000D806002055020008051A0008D51200087D
:10001000011A00084D040008291A00080000000019
:100020000000000000000000000000000D1A0008A1
:100030005104000800000000091A0008111A000805
:100040006F0200086F0200086F0200086F020008CC
:100050006F0200086F0200086F0200086F020008BC
:100060006F0200086F0200086F0200086F020008AC
:100070006F0200086F0200086F0200086F0200089C
:100080006F0200086F0200086F0200086F0200088C
:100090006F0200086F0200086F0200086F0200087C
:1000A0006F0200086F0200086F0200086F0200086C
:1000B0006F0200086F0200086F0200086F0200085C
:1000C0006F0200086F0200086F0200086F0200084C
:1000D0006F0200086F0200086F0200086F0200083C
:1000E0006F0200086F0200086F0200086F0200082C
:1000F0006F0200086F0200086F0200086F0200081C
:100100006F0200086F0200086F0200086F0200080B
:100110006F0200086F0200086F0200086F020008FB
:100120006F0200086F0200086F0200086F020008EB
:100130006F0200086F0200086F0200086F020008DB
:100140006F0200086F0200086F0200086F020008CB
:100150006F0200086F0200086F0200086F020008BB
:100160006F0200086F0200086F0200086F020008AB
:100170006F0200086F0200086F0200080000000014
:100180006F0200086F02000800F002F800F052F859
:1001900014A696E8000CB244B344DA4501D100F04D
:1001A00049F8BAE80F000FA696E83000A5EB040561
:1001B00004EB0607AAEB0704A7F101074FEA1515A0
:1001C0004FEA3414A4F10104AC4201D300F032F838
:1001D00013F0010F18BFFB1A43F0010300F001F800
:1001E000DBE718474C1A00006C1A0000103A24BFD5
:1001F00078C878C1FAD8520724BF30C830C144BF8C
:1002000004680C6070470000704700000023002461
:1002100000250026103A28BF78C1FBD8520728BF16
:1002200030C148BF0B6070471FB501F0E8FC1FBD2F
:1002300010B510BD00F0D0F81146FFF7F5FF01F042
:10024000F5FB00F0EEF803B4FFF7F2FF03BC00F09B
:10025000F5F800000948804709480047FEE7FEE737
:10026000FEE7FEE7FEE7FEE7FEE7FEE7FEE7FEE766
:1002700004480549054A064B70470000151A000856
:1002800089010008D8000020D8060020D8020020EC
:10029000D802002053EA020C00F069802DE9F04BEF
:1002A0004FF00006002B1FBFB3FA83F503FA05F4E5
:1002B00024FA05F65E4012BF1643B2FA82F502FA3E
:1002C00005F4C5F120051EBF22FA05FC44EA0C0422
:1002D000203556EA044C4FEA144418BF641C4FF012
:1002E00000084FF00009904271EB030C39D300294C
:1002F00019BFB1FA81F701FA07F6B0FA80F700FAF0
:1003000007F6C7F120071EBF20FA07FC46EA0C06D5
:100310002037B6FBF4FCA7EB0507103F07F01F0BD7
:10032000CBF120062CFA06F60CFA0BFB44BFB346C1
:100330000026202FA4BF5E464FF0000B5BEA060CA0
:1003400008BF4FF0010B19EB0B0948EB0608ABFB9C
:10035000027C06FB02CC0BFB03CCC01B71EB0C0137
:10036000C1E70B46024641464846BDE8F08B13B54F
:10037000084318BF4FF0FF300146AFF30080BDE8DF
:100380001C4070474FF0000200B513469446964655
:10039000203922BFA0E80C50A0E80C50B1F1200198
:1003A000BFF4F7AF090728BFA0E80C5048BF0CC046
:1003B0005DF804EB890028BF40F8042B08BF7047A4
:1003C00048BF20F8022B11F0804F18BF00F8012B16
:1003D0007047704770477047754600F02BF8AE467F
:1003E00005006946534620F00700854618B020B541
:1003F000FFF73EFFBDE820404FF000064FF000073A
:100400004FF000084FF0000BAC46ACE8C009ACE878
:10041000C009ACE8C009ACE8C00921F007018D466D
:10042000704710B50446AFF300802046BDE8104089
:10043000FFF709BF0048704710000020014918204D
:10044000ABBEFEE72600020070470000FEE700009A
:1004500070470000B0B5044600F0E0F8054640F2F1
:100460000000C2F200000078611C18BF044400BF05
:1004700000F0D4F8401BA042FAD3B0BD2DE9F04FF4
:1004800083B000F1200200F13E4741F600450092A2
:1004900007F1FF77C4F2020508224FEAB726A84207
:1004A00008BF072200254FF000084FF00009072E73
:1004B00038BF4FEAB72201920AE000BF09F10109F3
:1004C00008F10208B9F1100F05F1040500F0A2804F
:1004D0000F68012202FA09FE17EA0E0AEED0D1F8DF
:1004E00004C003220CF003077E1E02FA08F4012E5A
:1004F0006FEA040B12D88468CE6804EA0B0406FA8B
:1005000008F634438460446824EA0E06CCF30014F1
:1005100004FA09F42643466004E000BF032F01D12A
:1005200003271EE0C6688C6806EA0B0604FA08F486
:100530002643022FC66014D16FF00302009E02EA28
:10054000590756F807C005F01C040F220B69A2409A
:100550002CEA0202A3401A43F251D1F804C00CF075
:100560000307026807FA08F302EA0B021A431CF4B5
:10057000403F0260A2D0002243F644030292C4F23C
:1005800002031A6843F6004442F480421A601A6873
:10059000C4F2010402F480420292029A29F003029A
:1005A0004FF6084C2244CFF6FF7C52F80C3005F091
:1005B0000C070F26BE40B343019E06FA07F73B43E4
:1005C00042F80C30A2684B6842EA0A0743F60C4C2A
:1005D000DE0258BF22EA0A07A760C4F2010CDCF869
:1005E00000209E0242EA0A0758BF22EA0A07CCF816
:1005F000007062689E0342EA0A0758BF22EA0A07AF
:1006000067602268DB0342EA0A0758BF22EA0A074A
:10061000276053E703B0BDE8F08F000040F2D4003C
:10062000C2F2000000687047002804BF0120704734
:10063000F0B581B0044690F83D0028B9002084F858
:100640003C00204600F07CFA242084F83D0020681D
:10065000016821F001010160016841F4004101607D
:10066000016821F40041016000F0FCFB636848F27E
:10067000A16CC0F2010C40F60011C0F23D016345CF
:100680003CBF48F28041C0F21E01884202D20120E4
:1006900001B0F0BD4DF68361C4F21B31A0FB011225
:1006A0002168970CD1F804E04FF496762EF03F05C0
:1006B00045EA92454D60774348F638160D6AC0F218
:1006C0004106A7FB067625F03F07634538BF960C29
:1006D000721C3A430A62CA6948F2A0664CF6FF7778
:1006E000C0F20106B34222EA07020BD801385B00D0
:1006F000B0FBF3F001306FF31F30042898BF0420E3
:100700001BE000BFA768013857B119277B43B0FB36
:10071000F3F001306FF31F3070B100F5804007E057
:1007200003EB4303B0FBF3F001306FF31F3018B15C
:1007300000F5004001E000BF01201043C8610868D7
:10074000D4E9072320F0C0001043184308608868EC
:1007500048F2FF3204F10C0790438CCF184310434A
:10076000A6698860C86820F0FF0038433043C8603D
:10077000086840F00100086000202021206484F80F
:100780003D10206384F83E0001B0F0BD2DE9F04734
:1007900084B0994616460F460446FFF73FFF94F88B
:1007A0003D10202927D10546206800BF81698907AF
:1007B0001CD5FFF733FF411B20681A29F6D3816946
:1007C0008907F3D500202021206384F83D1084F8A8
:1007D0003E00206C04F13C0A40F02000206402201E
:1007E00000218AF8001004B0BDE8F087A2461AF88C
:1007F0003C1F012904D1022004B0BDE8F08700BFEE
:1008000001228AF800200368DDE90D180C9ADB0745
:1008100003D1036843F001030360036823F400631A
:100820000360222084F83D00402084F83E00002030
:10083000206462626185608D394620850020CFF694
:10084000FF70E062204632464B46CDE9008500F05D
:1008500043FD18B1012004B0BDE8F087208D08B336
:10086000022813D0012835D121680A6822F4806259
:100870000A60002203924A6903928A690392039AEA
:100880000A6842F400720A602CE000BF21680A681E
:1008900022F480620A600A6842F400620A60002260
:1008A00003921AE000200390206841690391816956
:1008B00003910399016841F400710160202084F8DC
:1008C0003D00002084F83E0000218AF8001004B0AA
:1008D000BDE8F0870021039121684A690392896984
:1008E000039103990427C0F201070CE01069087016
:1008F000606A218D01306062481E2085618D01395A
:1009000061850104DAD080B203280FD802284AD0CA
:1009100001282DD1204641462A4600F07BFF0028C1
:1009200098D12068616A0069E1E700BF204641462E
:100930002A4600F06FFF00287FF48CAF2068616AC0
:1009400000690870606A2268411C208D616201386C
:100950002085638D013B638553695B07D1D580B2E8
:100960000328C3D1106820F480601060BEE700BF88
:100970002046394600224346009500F0F9FD002844
:100980007FF468AF2068616A026822F480620260C6
:1009900000690870606A218D01306062481E208500
:1009A000608D013860852046394600224346009517
:1009B00000F0DEFD00287FF44DAF2068616A026818
:1009C00042F40072026000690870606A2268411C8B
:1009D0006162218D01392185618D0139618511693E
:1009E000417085E72DE9F04383B0994616460F46DE
:1009F0000446FFF713FE94F83D10202924D1054644
:100A0000206800BF816989071AD5FFF707FE411BDF
:100A100020681A29F6D381698907F3D5002020219F
:100A2000206384F83D1084F83E00216C41F02001E1
:100A3000216484F83C00022003B0BDE8F08300BFCD
:100A400094F83C10012903D1022003B0BDE8F083E3
:100A5000012284F83C200368DDE90B180A9ADB07C1
:100A600003D1036843F001030360036823F40063C8
:100A70000360212084F83D00402084F83E000020DF
:100A8000206462626185608D394620850020CFF642
:100A9000FF70E062204632464B46CDE9008500F00B
:100AA000A5FC18B1012003B0BDE8F083208D98B9F2
:100AB000204641462A4600F0FDFC88B3206C0428FD
:100AC000F0D12068016841F400710160012003B099
:100AD000BDE8F0830004EBD0204641462A4600F0F2
:100AE000E1FE0028EAD1616A2268084610F8013B5D
:100AF0001361238D6062581E2085678D013F6785D5
:100B000057697F07E6D50704E4D048781061881C50
:100B10006062981E2085618D01396185DAE700BF2A
:100B20002068016841F400710160202084F83D00D4
:100B3000002084F83E0084F83C0003B0BDE8F08358
:100B4000B0B586B045F200410068C4F2000100244F
:100B500088420594CDE903440294019402D006B082
:100B6000B0BD00BF43F630050094C4F2020528680A
:100B700040F002002860286800F002000090009811
:100B8000C02001901220CDE902040320049004202B
:100B9000059001F5D83001A9FFF770FC0094286991
:100BA00040F400102861286900F4001000900098BB
:100BB00006B0B0BD40F2000040F2D401C2F2000025
:100BC000C2F2000100780A68104408607047000013
:100BD00080B543F60040C4F20200016841F40071A0
:100BE0000160016841F480610160016841F4807135
:100BF0000160032000F074F80F2000F005F800F009
:100C000027F8002080BD000070B540F20006C2F257
:100C1000000640F208013278C2F200014FF47A7304
:100C20000968B3FBF2F20446B1FBF2F1084600F0AA
:100C30003BFB0F2C4FF0010508D838B94FF0FF30BF
:100C400021460022002500F01FF87460284670BD80
:100C500082B0002043F640010190C4F202014A68CC
:100C600042F480424A604A6802F480420192019A4A
:100C70000090086840F080500860086800F08050DC
:100C80000090009802B0704710B54EF60C5CCEF2A2
:100C9000000CDCF80030C3F3022E8EF00704042CA5
:100CA00028BF0424BEF103034FF0FF3E0EFA04F404
:100CB00038BF0023A14399400EFA03F39A4311432E
:100CC00000F00F0200F160430901043A03F56443A8
:100CD0006244002848BF02F10C03197010BD0000E7
:100CE0004EF60C51CEF200010A684FF6FF031A408F
:100CF00060F30A2242F0806040F0FD7008607047A7
:100D0000002804BF012070472DE9F04143F6080890
:100D1000C4F202080446D8F8F8030D4600F00700B4
:100D2000814207D988F8F853D8F8F80300F0070093
:100D3000A84277D12068810717D5410705D5D8F893
:100D4000001041F4E051C8F80010010705D5D8F8AB
:100D5000001041F46041C8F80010D8F80010A268F3
:100D600021F0F0011143C8F80010C00740D1D8F8B5
:100D7000F80300F00700854207D288F8F853D8F846
:100D8000F80300F00700A8424CD12068410707D5BE
:100D9000D8F80010E26821F4E0511143C8F80010BF
:100DA000000708D5D8F80000216920F4604040EA27
:100DB000C100C8F8000000F069F8D8F8001041F64A
:100DC0001842C1F30311C0F60002515C40F2080260
:100DD00020FA01F140F20400C2F200000068C2F201
:100DE00000021160FFF710FF0020BDE8F08100BF96
:100DF0006068811E022907D258F8081C89015CBF6F
:100E00000120BDE8F08111E0012807D158F8081C45
:100E100089035CBF0120BDE8F08107E058F8081C99
:100E2000890703D40120BDE8F08100BFD8F8001085
:100E300021F003010843C8F80000FFF7EFFB064666
:100E400041F28837D8F80000616800F00C00B0EB80
:100E5000810F8CD0FFF7E2FB801BB842F2D9032050
:100E6000BDE8F08140F2080043F60801C2F200003C
:100E7000C4F202010068096841F62842C1F38221E8
:100E8000C0F60002515CC8407047000010B543F640
:100E90000404C4F202046168C1F3810142F200401B
:100EA000C0F2F400DFE801F002040A0210BD00BF46
:100EB00047F64000C0F27D1010BD00BF20682168D9
:100EC0002368490247F64001C0F27D1100F03F025D
:100ED000C3F388105CBF42F20041C0F2F401A1FBF1
:100EE00000010023FFF7D6F921680222C1F3014176
:100EF00002EB4101B0FBF1F010BD0000002804BF7F
:100F0000012070472DE9F04182B00446007843F695
:100F10000006C007C4F202060CD0B06800F00C0056
:100F2000042840F081803068800303D56068002881
:100F300000F06881207880071BD5B06810F00C0F96
:100F400009D0B06800F00C00082840F08780706875
:100F5000400200F183803068800703D5E0680128F3
:100F600040F050813068216920F0F80040EAC1006B
:100F700030602078000713D4207840072AD4A56970
:100F8000002D00F03A81B06800F00C00082840F015
:100F9000A580012D40F00E81012002B0BDE8F08156
:100FA0006069002800F082800020C4F247200121FF
:100FB000C0F8801EFFF732FB054600BF706F800748
:100FC000DAD4FFF72BFB401B0228F7D9032002B02D
:100FD000BDE8F081306C5FEAC0080AD400200190BF
:100FE000306C40F080503064306C00F080500190E4
:100FF000019847F20007C4F200073868C00547D4DB
:10100000386840F480703860FFF708FB054600BF81
:101010003868C0053CD4FFF701FB401B0228F7D914
:10102000032002B0BDE8F081B06800F00C00082891
:1010300003D1706840023FF576AF61683068B1F562
:10104000803F07D0B1F5A02F40F09A8040F4802077
:101050003060306840F4803030609AE0E06800280A
:1010600040F20000C4F247205CD001210160FFF78C
:10107000D5FA0546306880073FF574AFFFF7CEFA22
:10108000401B0228F6D9032002B0BDE8F08100BF62
:10109000A168306F012905D0052955D140F0040021
:1010A0003067306F40F00100306756E00020C4F236
:1010B00047200021C0F8801EFFF7B0FA054600BFA8
:1010C000706F80077FF558AFFFF7A8FA401B022822
:1010D000F6D9032002B0BDE8F08100BF0027C4F2BA
:1010E000472700203866FFF799FA022D05460DD1F3
:1010F0003068800140F18A80FFF790FA401B022897
:101100004FF00300F4D902B0BDE8F08130688001EF
:1011100073D5FFF783FA401B02284FF00300F5D97F
:10112000F1E700BF00210160FFF778FA054600BF34
:10113000306880077FF51DAFFFF770FA401B02286B
:101140004FF00300F4D9DEE720F001003067306F84
:10115000002920F0040030677AD0FFF75FFA0546D7
:1011600041F28837306F800700F18480FFF756FA2C
:10117000401BB842F6D9032002B0BDE8F08100BFA1
:1011800020F4803030603068002920F48020306006
:101190007AD0FFF743FA0546306880033FF5CAAEC0
:1011A000FFF73CFA401B6428F6D9032002B0BDE8E3
:1011B000F08100BF7068E16900F480028A4221D1A9
:1011C000216A00F03F028A421CD147F6C071626A70
:1011D0000140B1EB821F15D1A16A4FF6FF73C9031D
:1011E000994300F44032A1F580318A420AD1E16A84
:1011F00000F07060B0EB016F04D1002002B0BDE8D8
:10120000F08100BF012002B0BDE8F08104F11C05AF
:101210002FCD084340EA8210D9034FF6FF72914365
:10122000A1F5803140EA056008437060012038660E
:10123000FFF7F4F9044600BF30688001DDD4FFF702
:10124000EDF9001B02284FF00300F5D95BE700BF62
:10125000FFF7E4F9054641F2883700BF306F800799
:1012600008D5FFF7DBF9401BB8424FF00300F5D972
:1012700049E700BFB8F1000F3FF581AE306C20F0B8
:10128000805030647BE600BFFFF7C8F9054600BF19
:10129000306880037FF54EAEFFF7C0F9401B64282D
:1012A0004FF00300F4D92EE7411E0020B0EB116F80
:1012B0001CBF012070474EF21002CEF200025160B6
:1012C0004EF62351CEF20001F0230B7007219060FF
:1012D00011607047FEE700002DE9F04782B0044638
:1012E00000689A460B9D0A9E0368914643F480620B
:1012F000026002680F4642F48071016020464FF0A0
:10130000011100223346009500F032F950B12068F7
:101310000068C00544BF4FF400702064032002B091
:10132000BDE8F08740F202082068C0F2010807F02B
:10133000FE0707612046414632462B4600F0FEF983
:1013400020B1012002B0BDE8F08700BF002001906D
:1013500020682A46416901918069314601900198CF
:10136000204600F09FFAB0B92068BAF1010F09D009
:101370004FEA19210161204631462A4600F092FACF
:1013800048B920685FFA89F10161204631462A4652
:1013900000F088FA60B1206C0428D2D1206801687E
:1013A00041F400710160012002B0BDE8F08700BF88
:1013B000206800220168334641F4807101602046B4
:1013C0004FF00111009500F0D3F800289FD147F0AD
:1013D000010C27682046414632462B46C7F810C00C
:1013E00002B0BDE8F04700F0A9B900002DE9F043D4
:1013F00083B0044600680F4601680A9D0B9E41F4C5
:10140000807199469046016020464FF001110022FC
:101410002B46009600F0ACF850B120680068C0057B
:1014200044BF4FF400702064032003B0BDE8F08394
:10143000206807F0FE0101610221C0F2010120468F
:101440002A46334600F07AF920B1012003B0BDE806
:10145000F08300BF0020029020683246416902916B
:101460008069294602900298204600F01BFA58B184
:10147000206C0428E9D12068016841F40071016002
:10148000012003B0BDE8F0832068B9F1010F0AD054
:101490004FEA1821016120462946324600F002FA3F
:1014A0000028E5D120685FFA88F10161002003B0CF
:1014B000BDE8F08370B50368044653F8140F400785
:1014C00011D40E46481C29D086BB00BF18684005C1
:1014D00027D4FFF7A3F8236853F8140F400737D534
:1014E00018684007F2D5002070BD00BF186840079B
:1014F000F9D41868400514D418684007F3D4186864
:1015000040050ED418684007EDD41868400508D48B
:10151000186840074FF0000048BF70BD18684005CC
:10152000E4D56FF480601860042012E0154603E0F3
:1015300053F8140F4007D6D418684005F1D4FFF7CC
:101540006DF8401B2368B042F2D958694007EFD4C8
:10155000202000212022216384F83D2084F83E10C1
:10156000226C10432064012084F83C1070BD000000
:101570002DE9F041054600681E46144601F47F023D
:1015800001338FB242D0DDF81880B2F5803F40F0D1
:10159000878040693840C01BB0FA80F0400984421F
:1015A00040F0C8804EB924E040693840C01BB0FA12
:1015B00080F04009844240F0BD80FFF72FF8A0EB97
:1015C00008012868B142EFD941693940C91BB1FA15
:1015D00081F149098C42E7D19BE000BF4069384066
:1015E000C01BB0FA80F0400984424FF0000040F088
:1015F000A280FFF713F8286841693940C91BB1FA86
:1016000081F149098C42E9D183E000BFB2F5803F06
:1016100024D100BF41693940C91BB1FA81F14909A0
:101620008C4240F0878041693940C91BB1FA81F191
:1016300049098C4240F07E8041693940C91BB1FAAA
:1016400081F149098C4275D141693940C91BB1FA10
:1016500081F149098C42DDD06CE000BF81693940DD
:10166000C91BB1FA81F149098C4263D181693940C2
:10167000C91BB1FA81F149098C425BD181693940BA
:10168000C91BB1FA81F149098C4253D181693940B2
:10169000C91BB1FA81F149098C42DFD04AE000BF91
:1016A00080693840C01BB0FA80F04009844241D1C3
:1016B00046B923E080693840C01BB0FA80F0400989
:1016C000844237D1FEF7AAFFA0EB08012868B14297
:1016D000F0D981693940C91BB1FA81F149098C42BD
:1016E000E8D116E080693840C01BB0FA80F04009AC
:1016F00084424FF0000018BFBDE8F081FEF78EFF76
:10170000286881693940C91BB1FA81F149098C42C5
:10171000E8D100202021286385F83D1085F83E009F
:10172000296C41F02001296485F83C000120BDE8C6
:10173000F08100BF0020BDE8F0810000F0B581B06D
:10174000044600681D4643698FB203EA0701B942A7
:1017500002D1002001B0F0BD4169164601323CD0F3
:10176000490512D47EB300BFFEF758FF411B206825
:10177000B14203D941693940B9422BD1416939405D
:10178000B942E6D041694905EED5016841F40071DE
:1017900001606FF4806141610420002120222163F7
:1017A00084F83D2084F83E10226C1043206484F8B5
:1017B0003C10012001B0F0BD41693940B942C8D0A8
:1017C00041694905E1D4FEF729FF206841693940A4
:1017D000B942F1D02020E0E741694905D5D44169FB
:1017E0003940B942B5D041694905CED44169394043
:1017F000B942AED041694905C7D441693940B942BF
:10180000A7D041694905C0D441693940B942E3D103
:101810009FE7000070B504460068154650F8143F75
:101820005A063DD40E4629B926E000BF50F8141FD1
:10183000490635D40168C90621D4FEF7EFFE411BE5
:101840002068B142F2D941694906EFD40020202135
:10185000206384F83D1084F83E00206C40F02000A6
:1018600018E000BFFEF7DAFE206850F8141F4906A2
:10187000ECD50168490613D40168C906F2D56FF0AA
:101880001001016000202021206384F83D1084F8BD
:101890003E00206C2064002084F83C00012070BDD4
:1018A000002070BD70B50368044653F8140F00069D
:1018B00011D40E46481C29D086BB00BF18684005CD
:1018C00027D4FEF7ABFE236853F8140F000637D574
:1018D00018680006F2D5002070BD00BF1868000629
:1018E000F9D41868400514D418680006F3D41868B1
:1018F00040050ED418680006EDD41868400508D4D9
:10190000186800064FF0000048BF70BD1868400519
:10191000E4D56FF480601860042012E0154603E0FF
:1019200053F8140F0006D6D418684005F1D4FEF71A
:1019300075FE401B2368B042F2D958690006EFD407
:10194000202000212022216384F83D2084F83E10CD
:10195000226C10432064012084F83C1070BD00000C
:101960002DE9F04184B001260DF10F00CDE900060C
:1019700040F27000C2F2000000F110044FF47A75DA
:101980002046D021752201230295FEF7FFFE9DF827
:101990000F00682830D14FF000080DF10E072046E7
:1019A000D0216B2201238DF80E80CDE900760295BF
:1019B000FFF718F807208DF80E002046D0211922D5
:1019C0000123CDE900760295FFF70CF82046D021DF
:1019D0001B2201238DF80E80CDE900760295FFF7DA
:1019E00001F82046D0211C2201238DF80E80CDE97C
:1019F00000760295FEF7F6FF04B0BDE8F081000026
:101A0000FEE70000FEE7000070470000704700009E
:101A1000FFF7D0B84EF68850CEF20000016841F4CE
:101A20007001016070470000FEE7000096B043F6C9
:101A30003004C4F20204FFF7CBF80DF12809484640
:101A40003021FEF79FFC00250995CDE90755CDE92A
:101A500005550495206940F080502061206900F010
:101A600080500490049847F200000495C4F20000EE
:101A7000016841F480410160006800F480400490F6
:101A8000049802200A9001200D9010200E904846E4
:101A90001095FFF733FA18B172B600BFFEE700BF2A
:101AA0000F20CDE9050580200DF11408CDE90705CB
:101AB000404600210995FFF723F918B172B600BF1F
:101AC000FEE700BF00250A95206840F2700740F04D
:101AD000010020602068C2F2000700F001000A90B7
:101AE0000A980A95206845F2004140F00200206003
:101AF0002068C4F2000100F002000A900A983846FB
:101B000040F8101F48F2A061C0F201014FF480427A
:101B1000C0E90115C0E90352C0E90555C0E9075500
:101B2000FEF782FD10B172B6FEE700BF8DF81450CB
:101B300007F110054FF47A7601242846D02175224A
:101B40000123CDE900740296FEF720FE2846D0213D
:101B50006B220123CDE900840296FEF743FF0624A1
:101B60002846D0213B220123CDE900940296FEF7BE
:101B70000DFEBDF82800BDF82A1000BA000C7880D0
:101B800008BABDF82C10000CB88008BA000CF88018
:101B9000FFF7E6FE2846D02143220123CDE9009439
:101BA0000296FEF7F3FDBDF82800BDF82A1000BA32
:101BB000000C388108BABDF82C10000C788108BAE6
:101BC000000CB8812846D0213B220123CDE90094A6
:101BD0000296FEF7DBFDBDF82800BDF82A1000BA1A
:101BE000000C788008BABDF82C10000CB88008BA38
:101BF000000CF8804FF47A70FEF72CFCCAE7F1EE87
:101C0000100A4FF6FF71C0F2C03120EA010040F027
:101C10004070E1EE100A7047000000000000000074
:101C20000102030406070809000000000102030482
:101C3000501C00080000002010000000EC0100080B
:101C4000601C000810000020C80600000C020008FC
:101C500001000000100000000024F400000000005B
:040000050800018965
:00000001FF
